{
  "_format": "hh-sol-artifact-1",
  "contractName": "Marketplace",
  "sourceName": "contracts/Marketplace.sol",
  "abi": [
    {
      "inputs": [
        {
          "internalType": "uint256",
          "name": "_listingPrice",
          "type": "uint256"
        }
      ],
      "stateMutability": "nonpayable",
      "type": "constructor"
    },
    {
      "inputs": [],
      "name": "Address0",
      "type": "error"
    },
    {
      "inputs": [],
      "name": "AmountNotEnough",
      "type": "error"
    },
    {
      "inputs": [],
      "name": "AuctionItem",
      "type": "error"
    },
    {
      "inputs": [],
      "name": "BuyDirectly",
      "type": "error"
    },
    {
      "inputs": [],
      "name": "EndBeforeRelease",
      "type": "error"
    },
    {
      "inputs": [],
      "name": "Ended",
      "type": "error"
    },
    {
      "inputs": [],
      "name": "NotApproved",
      "type": "error"
    },
    {
      "inputs": [],
      "name": "NotStarted",
      "type": "error"
    },
    {
      "inputs": [],
      "name": "OwnedByU",
      "type": "error"
    },
    {
      "inputs": [],
      "name": "StatusNotForSale",
      "type": "error"
    },
    {
      "inputs": [],
      "name": "TimingError",
      "type": "error"
    },
    {
      "inputs": [],
      "name": "TransferFailed",
      "type": "error"
    },
    {
      "anonymous": false,
      "inputs": [
        {
          "indexed": true,
          "internalType": "address",
          "name": "Collection",
          "type": "address"
        },
        {
          "indexed": false,
          "internalType": "address",
          "name": "Seller",
          "type": "address"
        },
        {
          "indexed": false,
          "internalType": "uint256",
          "name": "Price",
          "type": "uint256"
        },
        {
          "indexed": true,
          "internalType": "uint256",
          "name": "TokenId",
          "type": "uint256"
        },
        {
          "indexed": true,
          "internalType": "uint256",
          "name": "ItemId",
          "type": "uint256"
        }
      ],
      "name": "ItemListed",
      "type": "event"
    },
    {
      "anonymous": false,
      "inputs": [
        {
          "indexed": true,
          "internalType": "address",
          "name": "Collection",
          "type": "address"
        },
        {
          "indexed": false,
          "internalType": "address",
          "name": "Seller",
          "type": "address"
        },
        {
          "indexed": true,
          "internalType": "uint256",
          "name": "TokenId",
          "type": "uint256"
        },
        {
          "indexed": true,
          "internalType": "uint256",
          "name": "ItemId",
          "type": "uint256"
        }
      ],
      "name": "ItemRemoved",
      "type": "event"
    },
    {
      "anonymous": false,
      "inputs": [
        {
          "indexed": true,
          "internalType": "address",
          "name": "Collection",
          "type": "address"
        },
        {
          "indexed": true,
          "internalType": "address",
          "name": "Seller",
          "type": "address"
        },
        {
          "indexed": false,
          "internalType": "uint256",
          "name": "TokenId",
          "type": "uint256"
        },
        {
          "indexed": true,
          "internalType": "uint256",
          "name": "ItemId",
          "type": "uint256"
        }
      ],
      "name": "ItemSold",
      "type": "event"
    },
    {
      "anonymous": false,
      "inputs": [
        {
          "indexed": false,
          "internalType": "address",
          "name": "Collection",
          "type": "address"
        },
        {
          "indexed": true,
          "internalType": "address",
          "name": "Seller",
          "type": "address"
        },
        {
          "indexed": false,
          "internalType": "uint256",
          "name": "TokenId",
          "type": "uint256"
        },
        {
          "indexed": true,
          "internalType": "uint256",
          "name": "ItemId",
          "type": "uint256"
        },
        {
          "indexed": true,
          "internalType": "uint256",
          "name": "OfferId",
          "type": "uint256"
        }
      ],
      "name": "NewOffer",
      "type": "event"
    },
    {
      "anonymous": false,
      "inputs": [
        {
          "indexed": true,
          "internalType": "address",
          "name": "Collection",
          "type": "address"
        },
        {
          "indexed": true,
          "internalType": "address",
          "name": "Seller",
          "type": "address"
        },
        {
          "indexed": false,
          "internalType": "uint256",
          "name": "TokenId",
          "type": "uint256"
        },
        {
          "indexed": true,
          "internalType": "uint256",
          "name": "ItemId",
          "type": "uint256"
        },
        {
          "indexed": false,
          "internalType": "uint256",
          "name": "OfferId",
          "type": "uint256"
        }
      ],
      "name": "OfferAccepted",
      "type": "event"
    },
    {
      "anonymous": false,
      "inputs": [
        {
          "indexed": true,
          "internalType": "address",
          "name": "Collection",
          "type": "address"
        },
        {
          "indexed": false,
          "internalType": "address",
          "name": "Seller",
          "type": "address"
        },
        {
          "indexed": true,
          "internalType": "address",
          "name": "NewOwner",
          "type": "address"
        },
        {
          "indexed": false,
          "internalType": "uint256",
          "name": "TokenId",
          "type": "uint256"
        },
        {
          "indexed": true,
          "internalType": "uint256",
          "name": "ItemId",
          "type": "uint256"
        }
      ],
      "name": "OwnershipTransfer",
      "type": "event"
    },
    {
      "anonymous": false,
      "inputs": [
        {
          "indexed": true,
          "internalType": "address",
          "name": "previousOwner",
          "type": "address"
        },
        {
          "indexed": true,
          "internalType": "address",
          "name": "newOwner",
          "type": "address"
        }
      ],
      "name": "OwnershipTransferred",
      "type": "event"
    },
    {
      "anonymous": false,
      "inputs": [
        {
          "indexed": true,
          "internalType": "address",
          "name": "Collection",
          "type": "address"
        },
        {
          "indexed": true,
          "internalType": "address",
          "name": "Seller",
          "type": "address"
        },
        {
          "indexed": false,
          "internalType": "uint256",
          "name": "TokenId",
          "type": "uint256"
        },
        {
          "indexed": true,
          "internalType": "uint256",
          "name": "ItemId",
          "type": "uint256"
        },
        {
          "indexed": false,
          "internalType": "uint256",
          "name": "OfferId",
          "type": "uint256"
        }
      ],
      "name": "RemoveOffer",
      "type": "event"
    },
    {
      "inputs": [
        {
          "internalType": "uint256",
          "name": "marketId",
          "type": "uint256"
        },
        {
          "internalType": "uint256",
          "name": "_offerId",
          "type": "uint256"
        }
      ],
      "name": "acceptOffer",
      "outputs": [
        {
          "internalType": "bool",
          "name": "",
          "type": "bool"
        }
      ],
      "stateMutability": "nonpayable",
      "type": "function"
    },
    {
      "inputs": [
        {
          "internalType": "uint256",
          "name": "marketId",
          "type": "uint256"
        }
      ],
      "name": "buyERC20",
      "outputs": [
        {
          "internalType": "bool",
          "name": "",
          "type": "bool"
        }
      ],
      "stateMutability": "nonpayable",
      "type": "function"
    },
    {
      "inputs": [
        {
          "internalType": "uint256",
          "name": "marketId",
          "type": "uint256"
        }
      ],
      "name": "buyNative",
      "outputs": [
        {
          "internalType": "bool",
          "name": "",
          "type": "bool"
        }
      ],
      "stateMutability": "payable",
      "type": "function"
    },
    {
      "inputs": [
        {
          "internalType": "uint256",
          "name": "marketId",
          "type": "uint256"
        }
      ],
      "name": "cancelMyOffer",
      "outputs": [
        {
          "internalType": "bool",
          "name": "",
          "type": "bool"
        }
      ],
      "stateMutability": "nonpayable",
      "type": "function"
    },
    {
      "inputs": [],
      "name": "getApprovedAddress",
      "outputs": [
        {
          "internalType": "address",
          "name": "",
          "type": "address"
        }
      ],
      "stateMutability": "view",
      "type": "function"
    },
    {
      "inputs": [],
      "name": "getItems",
      "outputs": [
        {
          "components": [
            {
              "internalType": "bool",
              "name": "auctioned",
              "type": "bool"
            },
            {
              "internalType": "enum Marketplace.ItemStatus",
              "name": "status",
              "type": "uint8"
            },
            {
              "internalType": "address payable",
              "name": "seller",
              "type": "address"
            },
            {
              "internalType": "address",
              "name": "collection",
              "type": "address"
            },
            {
              "internalType": "address",
              "name": "paidWith",
              "type": "address"
            },
            {
              "internalType": "uint256",
              "name": "releaseDate",
              "type": "uint256"
            },
            {
              "internalType": "uint256",
              "name": "endDate",
              "type": "uint256"
            },
            {
              "internalType": "uint256",
              "name": "price",
              "type": "uint256"
            },
            {
              "internalType": "uint256",
              "name": "listingPrice",
              "type": "uint256"
            },
            {
              "internalType": "uint256",
              "name": "tokenId",
              "type": "uint256"
            },
            {
              "internalType": "uint256",
              "name": "marketId",
              "type": "uint256"
            }
          ],
          "internalType": "struct Marketplace.MarketItem[]",
          "name": "",
          "type": "tuple[]"
        }
      ],
      "stateMutability": "view",
      "type": "function"
    },
    {
      "inputs": [
        {
          "internalType": "uint256",
          "name": "marketId",
          "type": "uint256"
        }
      ],
      "name": "getOffers",
      "outputs": [
        {
          "components": [
            {
              "internalType": "uint256",
              "name": "offer",
              "type": "uint256"
            },
            {
              "internalType": "address",
              "name": "user",
              "type": "address"
            },
            {
              "internalType": "enum Marketplace.AuctionStatus",
              "name": "status",
              "type": "uint8"
            }
          ],
          "internalType": "struct Marketplace.Auction[]",
          "name": "",
          "type": "tuple[]"
        }
      ],
      "stateMutability": "view",
      "type": "function"
    },
    {
      "inputs": [
        {
          "internalType": "bool",
          "name": "_auctioned",
          "type": "bool"
        },
        {
          "internalType": "address",
          "name": "_collection",
          "type": "address"
        },
        {
          "internalType": "address",
          "name": "_paidWith",
          "type": "address"
        },
        {
          "internalType": "uint256",
          "name": "_tokenId",
          "type": "uint256"
        },
        {
          "internalType": "uint256",
          "name": "_price",
          "type": "uint256"
        },
        {
          "internalType": "uint256",
          "name": "_releaseDate",
          "type": "uint256"
        },
        {
          "internalType": "uint256",
          "name": "_endDate",
          "type": "uint256"
        }
      ],
      "name": "list",
      "outputs": [
        {
          "internalType": "uint256",
          "name": "",
          "type": "uint256"
        }
      ],
      "stateMutability": "payable",
      "type": "function"
    },
    {
      "inputs": [],
      "name": "listingPrice",
      "outputs": [
        {
          "internalType": "uint256",
          "name": "",
          "type": "uint256"
        }
      ],
      "stateMutability": "view",
      "type": "function"
    },
    {
      "inputs": [
        {
          "internalType": "uint256",
          "name": "marketId",
          "type": "uint256"
        },
        {
          "internalType": "uint256",
          "name": "_offer",
          "type": "uint256"
        }
      ],
      "name": "makeAnOfferERC20",
      "outputs": [
        {
          "internalType": "bool",
          "name": "",
          "type": "bool"
        }
      ],
      "stateMutability": "nonpayable",
      "type": "function"
    },
    {
      "inputs": [
        {
          "internalType": "uint256",
          "name": "marketId",
          "type": "uint256"
        },
        {
          "internalType": "uint256",
          "name": "_offer",
          "type": "uint256"
        }
      ],
      "name": "makeAnOfferNative",
      "outputs": [
        {
          "internalType": "bool",
          "name": "",
          "type": "bool"
        }
      ],
      "stateMutability": "payable",
      "type": "function"
    },
    {
      "inputs": [],
      "name": "owner",
      "outputs": [
        {
          "internalType": "address",
          "name": "",
          "type": "address"
        }
      ],
      "stateMutability": "view",
      "type": "function"
    },
    {
      "inputs": [
        {
          "internalType": "uint256",
          "name": "marketId",
          "type": "uint256"
        }
      ],
      "name": "removeListing",
      "outputs": [
        {
          "internalType": "bool",
          "name": "",
          "type": "bool"
        }
      ],
      "stateMutability": "nonpayable",
      "type": "function"
    },
    {
      "inputs": [],
      "name": "renounceOwnership",
      "outputs": [],
      "stateMutability": "nonpayable",
      "type": "function"
    },
    {
      "inputs": [
        {
          "internalType": "address",
          "name": "newOwner",
          "type": "address"
        }
      ],
      "name": "transferOwnership",
      "outputs": [],
      "stateMutability": "nonpayable",
      "type": "function"
    },
    {
      "inputs": [
        {
          "internalType": "address",
          "name": "_newApprovedAddress",
          "type": "address"
        }
      ],
      "name": "updateApprovedAddress",
      "outputs": [],
      "stateMutability": "nonpayable",
      "type": "function"
    },
    {
      "inputs": [
        {
          "internalType": "uint256",
          "name": "_newListingPrice",
          "type": "uint256"
        }
      ],
      "name": "updateListingPrice",
      "outputs": [
        {
          "internalType": "bool",
          "name": "",
          "type": "bool"
        }
      ],
      "stateMutability": "nonpayable",
      "type": "function"
    },
    {
      "inputs": [
        {
          "internalType": "address",
          "name": "_wallet",
          "type": "address"
        }
      ],
      "name": "updateWallet",
      "outputs": [],
      "stateMutability": "nonpayable",
      "type": "function"
    }
  ],
  "bytecode": "0x60806040523480156200001157600080fd5b506040516200388e3803806200388e8339810160408190526200003491620000be565b6200003f336200006e565b60018055600355600054600480546001600160a01b0319166001600160a01b03909216919091179055620000d8565b600080546001600160a01b038381166001600160a01b0319831681178455604051919092169283917f8be0079c531659141344cd1fd0a4f28419497f9722a3daafe3b4186f6b6457e09190a35050565b600060208284031215620000d157600080fd5b5051919050565b6137a680620000e86000396000f3fe6080604052600436106101095760003560e01c80638da5cb5b11610095578063c82d39c711610064578063c82d39c7146102b1578063dfa49e6f146102d1578063ef5ca45f146102fe578063f2fde38b1461031e578063fcfdbfea1461033e57600080fd5b80638da5cb5b1461023c578063ae677aa31461025a578063ba45b7191461027a578063c78f19f91461028d57600080fd5b80634ef519db116100dc5780634ef519db146101985780635b69e8fb146101c5578063715018a6146101e757806381257bd5146101fc578063848b86e31461021c57600080fd5b80630dcdf8481461010e5780632eb4418e14610143578063410d59cc14610156578063479ad4c314610178575b600080fd5b34801561011a57600080fd5b5061012e610129366004613472565b610351565b60405190151581526020015b60405180910390f35b61012e61015136600461348b565b610ad7565b34801561016257600080fd5b5061016b610f7a565b60405161013a91906134d7565b34801561018457600080fd5b5061012e610193366004613472565b611090565b3480156101a457600080fd5b506101ad611355565b6040516001600160a01b03909116815260200161013a565b3480156101d157600080fd5b506101e56101e03660046135b5565b6113b2565b005b3480156101f357600080fd5b506101e56113dc565b34801561020857600080fd5b5061012e61021736600461348b565b6113f0565b34801561022857600080fd5b506101e56102373660046135b5565b611c10565b34801561024857600080fd5b506000546001600160a01b03166101ad565b34801561026657600080fd5b5061012e610275366004613472565b611c3a565b61012e610288366004613472565b611c90565b34801561029957600080fd5b506102a360035481565b60405190815260200161013a565b3480156102bd57600080fd5b5061012e6102cc36600461348b565b61226a565b3480156102dd57600080fd5b506102f16102ec366004613472565b612771565b60405161013a91906135d2565b34801561030a57600080fd5b5061012e610319366004613472565b612837565b34801561032a57600080fd5b506101e56103393660046135b5565b612d08565b6102a361034c366004613645565b612d86565b600081600060068281548110610369576103696136b3565b6000918252602091829020604080516101608101909152600990920201805460ff8082161515845292939192918401916101009091041660038111156103b1576103b16134ad565b60038111156103c2576103c26134ad565b815281546001600160a01b036201000090910481166020830152600183015481166040830152600283015416606082015260038201546080820152600482015460a0820152600582015460c080830191909152600683015460e08301526007830154610100830152600890920154610120909101528101519091504211158061045e57604051630398516760e11b815260040160405180910390fd5b600082602001516003811115610476576104766134ad565b14905080610497576040516327400f1f60e11b815260040160405180910390fd5b5060408101516001600160a01b0316331415806104c75760405163bd6d961d60e01b815260040160405180910390fd5b8151156104e75760405163a6fd355560e01b815260040160405180910390fd5b6104ef61309a565b600060068681548110610504576105046136b3565b6000918252602091829020604080516101608101909152600990920201805460ff80821615158452929391929184019161010090910416600381111561054c5761054c6134ad565b600381111561055d5761055d6134ad565b815281546001600160a01b0362010000909104811660208301526001830154811660408301526002830154811660608301526003830154608080840191909152600484015460a0840152600584015460c0840152600684015460e084015260078401546101008401526008909301546101209092019190915290820151919250166105fb576040516312171d8360e31b815260040160405180910390fd5b608081015160e08201516106109082906130f4565b506000806106218460600151613253565b905080156108db5760008085606001516001600160a01b0316632a55205a8761012001518860e001516040518363ffffffff1660e01b8152600401610670929190918252602082015260400190565b604080518083038186803b15801561068757600080fd5b505afa15801561069b573d6000803e3d6000fd5b505050506040513d601f19601f820116820180604052508101906106bf91906136c9565b915091508560e0015181101561082b576040516323b872dd60e01b81526001600160a01b038616906323b872dd906106ff903390869086906004016136f7565b602060405180830381600087803b15801561071957600080fd5b505af115801561072d573d6000803e3d6000fd5b505050506040513d601f19601f82011682018060405250810190610751919061371b565b935083610771576040516312171d8360e31b815260040160405180910390fd5b6001600160a01b0385166323b872dd338860400151848a60e00151610796919061374e565b6040518463ffffffff1660e01b81526004016107b4939291906136f7565b602060405180830381600087803b1580156107ce57600080fd5b505af11580156107e2573d6000803e3d6000fd5b505050506040513d601f19601f82011682018060405250810190610806919061371b565b935083610826576040516312171d8360e31b815260040160405180910390fd5b6108d4565b60408087015160e088015191516323b872dd60e01b81526001600160a01b038816926323b872dd92610862923392906004016136f7565b602060405180830381600087803b15801561087c57600080fd5b505af1158015610890573d6000803e3d6000fd5b505050506040513d601f19601f820116820180604052508101906108b4919061371b565b9350836108d4576040516312171d8360e31b815260040160405180910390fd5b5050610984565b60408085015160e086015191516323b872dd60e01b81526001600160a01b038616926323b872dd92610912923392906004016136f7565b602060405180830381600087803b15801561092c57600080fd5b505af1158015610940573d6000803e3d6000fd5b505050506040513d601f19601f82011682018060405250810190610964919061371b565b915081610984576040516312171d8360e31b815260040160405180910390fd5b6004546101008501516040516001600160a01b039092169181156108fc0291906000818181858888f193505050501580156109c3573d6000803e3d6000fd5b50600160068a815481106109d9576109d96136b3565b60009182526020909120600990910201805461ff001916610100836003811115610a0557610a056134ad565b0217905550610a1484336132dd565b915081610a34576040516312171d8360e31b815260040160405180910390fd5b600060068a81548110610a4957610a496136b3565b90600052602060002090600902016006018190555083610140015184604001516001600160a01b031685606001516001600160a01b03167fc36542c7a190a4c20a7f15a0ddc46871de452f269f15b0e621f11b48463b299f876101200151604051610ab691815260200190565b60405180910390a46001975050505050610acf60018055565b505050919050565b600082600060068281548110610aef57610aef6136b3565b6000918252602091829020604080516101608101909152600990920201805460ff808216151584529293919291840191610100909104166003811115610b3757610b376134ad565b6003811115610b4857610b486134ad565b815281546001600160a01b036201000090910481166020830152600183015481166040830152600283015416606082015260038201546080820152600482015460a080830191909152600583015460c080840191909152600684015460e0840152600784015461010084015260089093015461012090920191909152908201519082015191925011610bed5760405163b5a7812160e01b815260040160405180910390fd5b428160a001511115610c1257604051636f312cbd60e01b815260040160405180910390fd5b428160c001511015610c375760405163477383f360e01b815260040160405180910390fd5b600081602001516003811115610c4f57610c4f6134ad565b14610c6d576040516327400f1f60e11b815260040160405180910390fd5b60408101516001600160a01b0316336001600160a01b03161415610ca45760405163bd6d961d60e01b815260040160405180910390fd5b610cac61309a565b600060068681548110610cc157610cc16136b3565b6000918252602091829020604080516101608101909152600990920201805460ff808216151584529293919291840191610100909104166003811115610d0957610d096134ad565b6003811115610d1a57610d1a6134ad565b815281546001600160a01b0362010000909104811660208301526001830154811660408301526002830154811660608301526003830154608080840191909152600484015460a0840152600584015460c0840152600684015460e0840152600784015461010084015260089093015461012090920191909152908201519192501615610db9576040516312171d8360e31b815260040160405180910390fd5b843414610dd9576040516332dba14760e21b815260040160405180910390fd5b805115610e0a578060e00151341015610e05576040516332dba14760e21b815260040160405180910390fd5b610e2e565b8060e001513410610e2e57604051633adcb59d60e21b815260040160405180910390fd5b600560008781526020019081526020016000206040518060600160405280878152602001610e593390565b6001600160a01b03168152602001600090528154600181810184556000938452602093849020835160029384029091019081559383015190840180546001600160a01b039092166001600160a01b031983168117825560408501519495949391926001600160a81b0319161790600160a01b908490811115610edd57610edd6134ad565b02179055505050600086815260056020526040902054610eff9060019061374e565b8682604001516001600160a01b03167f3e9aad35d353303c7b3f26e3f60a30a3be570efe5fedfe742659ec7bfb8f5bc38460600151856101200151604051610f5c9291906001600160a01b03929092168252602082015260400190565b60405180910390a46001935050610f7260018055565b505092915050565b60606006805480602002602001604051908101604052809291908181526020016000905b8282101561108757600084815260209081902060408051610160810190915260098502909101805460ff808216151584529293919291840191610100909104166003811115610fef57610fef6134ad565b6003811115611000576110006134ad565b815281546001600160a01b03620100009091048116602080840191909152600180850154831660408501526002850154909216606084015260038401546080840152600484015460a0840152600584015460c0840152600684015460e084015260078401546101008401526008909301546101209092019190915291835292019101610f9e565b50505050905090565b600061109a61309a565b6000600683815481106110af576110af6136b3565b6000918252602091829020604080516101608101909152600990920201805460ff8082161515845292939192918401916101009091041660038111156110f7576110f76134ad565b6003811115611108576111086134ad565b815281546201000090046001600160a01b039081166020830152600183015481166040830152600283015416606082015260038201546080820152600482015460a0820152600582015460c0820152600682015460e08201526007820154610100820152600890910154610120909101529050336001600160a01b031681604001516001600160a01b0316146111b15760405163c19f17a960e01b815260040160405180910390fd5b6001816020015160038111156111c9576111c96134ad565b14806111ea57506002816020015160038111156111e8576111e86134ad565b145b15611208576040516327400f1f60e11b815260040160405180910390fd5b60026006848154811061121d5761121d6136b3565b60009182526020909120600990910201805461ff001916610100836003811115611249576112496134ad565b0217905550600061125e8283604001516132dd565b90508061127e576040516312171d8360e31b815260040160405180910390fd5b600060068581548110611293576112936136b3565b90600052602060002090600902016006018190555081604001516001600160a01b03166108fc8361010001519081150290604051600060405180830381858888f193505050501580156112ea573d6000803e3d6000fd5b50610140820151610120830151606084015160408086015190516001600160a01b0391821681529116907f22d5e17e4f7f160542ef09013cd6832e8233fabc1dc2d10d284caf424b4c9e649060200160405180910390a460019250505061135060018055565b919050565b600080546001600160a01b03163314158061138457506007546001600160a01b0316336001600160a01b031614155b156113a25760405163c19f17a960e01b815260040160405180910390fd5b506007546001600160a01b031690565b6113ba6133c8565b600780546001600160a01b0319166001600160a01b0392909216919091179055565b6113e46133c8565b6113ee6000613422565b565b60006113fa61309a565b60006006848154811061140f5761140f6136b3565b6000918252602091829020604080516101608101909152600990920201805460ff808216151584529293919291840191610100909104166003811115611457576114576134ad565b6003811115611468576114686134ad565b815281546001600160a01b036201000090910481166020830152600183015481166040830152600283015416606082015260038201546080820152600482015460a080830191909152600583015460c080840191909152600684015460e084015260078401546101008401526008909301546101209092019190915290820151908201519192501115806114ff5750428160a00151115b8061150d5750428160c00151105b1561152b57604051630398516760e11b815260040160405180910390fd5b600081602001516003811115611543576115436134ad565b14611561576040516327400f1f60e11b815260040160405180910390fd5b60408101516001600160a01b0316331461158e5760405163c19f17a960e01b815260040160405180910390fd5b60008481526005602052604081208054859081106115ae576115ae6136b3565b60009182526020918290206040805160608101825260029384029092018054835260018101546001600160a01b038116958401959095529193919290840191600160a01b900460ff1690811115611607576116076134ad565b6002811115611618576116186134ad565b905250608083015160608401519192506001600160a01b0316159060009061163f90613253565b9050801561197a576060840151610120850151845160405163152a902d60e11b81526004810192909252602482015260009182916001600160a01b0390911690632a55205a90604401604080518083038186803b15801561169f57600080fd5b505afa1580156116b3573d6000803e3d6000fd5b505050506040513d601f19601f820116820180604052508101906116d791906136c9565b9150915083156117ac578451811015611770576040516001600160a01b0383169082156108fc029083906000818181858888f19350505050158015611720573d6000803e3d6000fd5b5085604001516001600160a01b03166108fc828760000151611742919061374e565b6040518115909202916000818181858888f1935050505015801561176a573d6000803e3d6000fd5b50611973565b604080870151865191516001600160a01b039091169180156108fc02916000818181858888f1935050505015801561176a573d6000803e3d6000fd5b608086015185518210156118e55760405163a9059cbb60e01b81526001600160a01b0384811660048301526024820184905282169063a9059cbb90604401602060405180830381600087803b15801561180457600080fd5b505af1158015611818573d6000803e3d6000fd5b505050506040513d601f19601f8201168201806040525081019061183c919061371b565b50806001600160a01b031663a9059cbb8860400151848960000151611861919061374e565b6040516001600160e01b031960e085901b1681526001600160a01b0390921660048301526024820152604401602060405180830381600087803b1580156118a757600080fd5b505af11580156118bb573d6000803e3d6000fd5b505050506040513d601f19601f820116820180604052508101906118df919061371b565b50611971565b6040878101518751915163a9059cbb60e01b81526001600160a01b039182166004820152602481019290925282169063a9059cbb90604401602060405180830381600087803b15801561193757600080fd5b505af115801561194b573d6000803e3d6000fd5b505050506040513d601f19601f8201168201806040525081019061196f919061371b565b505b505b5050611a54565b81156119c257604080850151845191516001600160a01b039091169180156108fc02916000818181858888f193505050501580156119bc573d6000803e3d6000fd5b50611a54565b60808401516040808601518551915163a9059cbb60e01b81526001600160a01b039182166004820152602481019290925282169063a9059cbb90604401602060405180830381600087803b158015611a1957600080fd5b505af1158015611a2d573d6000803e3d6000fd5b505050506040513d601f19601f82011682018060405250810190611a51919061371b565b50505b600087815260056020526040902080546002919088908110611a7857611a786136b3565b906000526020600020906002020160010160146101000a81548160ff02191690836002811115611aaa57611aaa6134ad565b02179055506004546101008501516040516001600160a01b039092169181156108fc0291906000818181858888f19350505050158015611aee573d6000803e3d6000fd5b50600160068881548110611b0457611b046136b3565b60009182526020909120600990910201805461ff001916610100836003811115611b3057611b306134ad565b02179055506000611b458585602001516132dd565b905080611b65576040516312171d8360e31b815260040160405180910390fd5b600060068981548110611b7a57611b7a6136b3565b90600052602060002090600902016006018190555084610140015185604001516001600160a01b031686606001516001600160a01b03167f3be3f6e01e862310f5452e4c3cf9af30e99d9eff46f25c6a6b926ca756c1ef008861012001518b604051611bf0929190918252602082015260400190565b60405180910390a4600195505050505050611c0a60018055565b92915050565b611c186133c8565b600480546001600160a01b0319166001600160a01b0392909216919091179055565b600080546001600160a01b031633141580611c6957506007546001600160a01b0316336001600160a01b031614155b15611c875760405163c19f17a960e01b815260040160405180910390fd5b50600355600190565b600081600060068281548110611ca857611ca86136b3565b6000918252602091829020604080516101608101909152600990920201805460ff808216151584529293919291840191610100909104166003811115611cf057611cf06134ad565b6003811115611d0157611d016134ad565b815281546001600160a01b036201000090910481166020830152600183015481166040830152600283015416606082015260038201546080820152600482015460a0820152600582015460c080830191909152600683015460e083015260078301546101008301526008909201546101209091015281015190915042111580611d9d57604051630398516760e11b815260040160405180910390fd5b600082602001516003811115611db557611db56134ad565b14905080611dd6576040516327400f1f60e11b815260040160405180910390fd5b5060408101516001600160a01b031633141580611e065760405163bd6d961d60e01b815260040160405180910390fd5b815115611e265760405163a6fd355560e01b815260040160405180910390fd5b611e2e61309a565b600060068681548110611e4357611e436136b3565b6000918252602091829020604080516101608101909152600990920201805460ff808216151584529293919291840191610100909104166003811115611e8b57611e8b6134ad565b6003811115611e9c57611e9c6134ad565b815281546001600160a01b0362010000909104811660208301526001830154811660408301526002830154811660608301526003830154608080840191909152600484015460a0840152600584015460c0840152600684015460e0840152600784015461010084015260089093015461012090920191909152908201519192501615611f3b576040516312171d8360e31b815260040160405180910390fd5b8060e00151341015611f60576040516332dba14760e21b815260040160405180910390fd5b6000611f6f8260600151613253565b905080156120df5760008083606001516001600160a01b0316632a55205a8561012001518660e001516040518363ffffffff1660e01b8152600401611fbe929190918252602082015260400190565b604080518083038186803b158015611fd557600080fd5b505afa158015611fe9573d6000803e3d6000fd5b505050506040513d601f19601f8201168201806040525081019061200d91906136c9565b9150915034811015612099576040516001600160a01b0383169082156108fc029083906000818181858888f1935050505015801561204f573d6000803e3d6000fd5b5060408401516001600160a01b03166108fc61206b833461374e565b6040518115909202916000818181858888f19350505050158015612093573d6000803e3d6000fd5b506120d8565b83604001516001600160a01b03166108fc349081150290604051600060405180830381858888f193505050501580156120d6573d6000803e3d6000fd5b505b505061211e565b81604001516001600160a01b03166108fc349081150290604051600060405180830381858888f1935050505015801561211c573d6000803e3d6000fd5b505b6004546101008301516040516001600160a01b039092169181156108fc0291906000818181858888f1935050505015801561215d573d6000803e3d6000fd5b50600160068881548110612173576121736136b3565b60009182526020909120600990910201805461ff00191661010083600381111561219f5761219f6134ad565b021790555060006121b083336132dd565b9050806121d0576040516312171d8360e31b815260040160405180910390fd5b6000600689815481106121e5576121e56136b3565b90600052602060002090600902016006018190555082610140015183604001516001600160a01b031684606001516001600160a01b03167fc36542c7a190a4c20a7f15a0ddc46871de452f269f15b0e621f11b48463b299f86610120015160405161225291815260200190565b60405180910390a460019650505050610acf60018055565b600082600060068281548110612282576122826136b3565b6000918252602091829020604080516101608101909152600990920201805460ff8082161515845292939192918401916101009091041660038111156122ca576122ca6134ad565b60038111156122db576122db6134ad565b815281546001600160a01b036201000090910481166020830152600183015481166040830152600283015416606082015260038201546080820152600482015460a080830191909152600583015460c080840191909152600684015460e08401526007840154610100840152600890930154610120909201919091529082015190820151919250116123805760405163b5a7812160e01b815260040160405180910390fd5b428160a0015111156123a557604051636f312cbd60e01b815260040160405180910390fd5b428160c0015110156123ca5760405163477383f360e01b815260040160405180910390fd5b6000816020015160038111156123e2576123e26134ad565b14612400576040516327400f1f60e11b815260040160405180910390fd5b60408101516001600160a01b0316336001600160a01b031614156124375760405163bd6d961d60e01b815260040160405180910390fd5b61243f61309a565b600060068681548110612454576124546136b3565b6000918252602091829020604080516101608101909152600990920201805460ff80821615158452929391929184019161010090910416600381111561249c5761249c6134ad565b60038111156124ad576124ad6134ad565b815281546001600160a01b036201000090910481166020830152600183015481166040830152600283015416606082015260038201546080820152600482015460a0820152600582015460c0820152600682015460e0820152600782015461010082015260089091015461012090910152805190915015612552578060e0015185101561254d576040516332dba14760e21b815260040160405180910390fd5b612576565b8060e00151851061257657604051633adcb59d60e21b815260040160405180910390fd5b608081015161258581876130f4565b506040516323b872dd60e01b81526000906001600160a01b038316906323b872dd906125b990339030908c906004016136f7565b602060405180830381600087803b1580156125d357600080fd5b505af11580156125e7573d6000803e3d6000fd5b505050506040513d601f19601f8201168201806040525081019061260b919061371b565b90508061262b576040516312171d8360e31b815260040160405180910390fd5b6005600089815260200190815260200160002060405180606001604052808981526020016126563390565b6001600160a01b03168152602001600090528154600181810184556000938452602093849020835160029384029091019081559383015190840180546001600160a01b039092166001600160a01b031983168117825560408501519495949391926001600160a81b0319161790600160a01b9084908111156126da576126da6134ad565b021790555050506000888152600560205260409020546126fc9060019061374e565b8884604001516001600160a01b03167f3e9aad35d353303c7b3f26e3f60a30a3be570efe5fedfe742659ec7bfb8f5bc386606001518761012001516040516127599291906001600160a01b03929092168252602082015260400190565b60405180910390a460019550505050610f7260018055565b606060056000838152602001908152602001600020805480602002602001604051908101604052809291908181526020016000905b8282101561282c5760008481526020908190206040805160608101825260028681029093018054825260018101546001600160a01b038116958301959095529093909291840191600160a01b90910460ff1690811115612808576128086134ad565b6002811115612819576128196134ad565b81525050815260200190600101906127a6565b505050509050919050565b600061284161309a565b600060068381548110612856576128566136b3565b6000918252602091829020604080516101608101909152600990920201805460ff80821615158452929391929184019161010090910416600381111561289e5761289e6134ad565b60038111156128af576128af6134ad565b815281546001600160a01b03620100009091048116602080840191909152600184015482166040808501919091526002850154909216606084015260038401546080840152600484015460a084015260058085015460c0850152600685015460e0850152600785015461010085015260089094015461012090930192909252600087815292825280832080548251818502810185019093528083529495509293909291849084015b828210156129dd5760008481526020908190206040805160608101825260028681029093018054825260018101546001600160a01b038116958301959095529093909291840191600160a01b90910460ff16908111156129b9576129b96134ad565b60028111156129ca576129ca6134ad565b8152505081526020019060010190612957565b505050509050612a0460408051606081018252600080825260208201819052909182015290565b60005b8251811015612a7a57336001600160a01b0316838281518110612a2c57612a2c6136b3565b6020026020010151602001516001600160a01b03161415612a6857828181518110612a5957612a596136b3565b60200260200101519150612a7a565b80612a7281613765565b915050612a07565b60208201516001600160a01b0316612aa5576040516359c662df60e11b815260040160405180910390fd5b600082604001516002811115612abd57612abd6134ad565b14612adb5760405163c19f17a960e01b815260040160405180910390fd5b600086815260056020526040902080546001919083908110612aff57612aff6136b3565b906000526020600020906002020160010160146101000a81548160ff02191690836002811115612b3157612b316134ad565b021790555060808401516001600160a01b031615612c0d5760808401516020830151835160405163a9059cbb60e01b81526000936001600160a01b03169263a9059cbb92612b95926004016001600160a01b03929092168252602082015260400190565b602060405180830381600087803b158015612baf57600080fd5b505af1158015612bc3573d6000803e3d6000fd5b505050506040513d601f19601f82011682018060405250810190612be7919061371b565b905080612c07576040516312171d8360e31b815260040160405180910390fd5b50612c4c565b602082015182516040516001600160a01b039092169181156108fc0291906000818181858888f19350505050158015612c4a573d6000803e3d6000fd5b505b6000868152600560205260409020805482908110612c6c57612c6c6136b3565b60009182526020822060029091020190815560010180546001600160a81b0319169055610140840151604080860151606087015161012088015192516001600160a01b039283169391909216917f635ae47ac4d84735a84d5704045ff66bdc2726788e7760addec12735d1020f7391612cef918790918252602082015260400190565b60405180910390a4600194505050505061135060018055565b612d106133c8565b6001600160a01b038116612d7a5760405162461bcd60e51b815260206004820152602660248201527f4f776e61626c653a206e6577206f776e657220697320746865207a65726f206160448201526564647265737360d01b60648201526084015b60405180910390fd5b612d8381613422565b50565b6000612d9061309a565b600354341015612db3576040516332dba14760e21b815260040160405180910390fd5b8282111580612dc25750428211155b15612de05760405163b5a7812160e01b815260040160405180910390fd5b6001600160a01b038716612e07576040516359c662df60e11b815260040160405180910390fd5b60008411612e28576040516332dba14760e21b815260040160405180910390fd5b60006001600160a01b038716612e4057506000612e43565b50855b6040516323b872dd60e01b81526001600160a01b038916906323b872dd90612e7390339030908b906004016136f7565b600060405180830381600087803b158015612e8d57600080fd5b505af1158015612ea1573d6000803e3d6000fd5b505050506000612eb060025490565b9050612ec0600280546001019055565b60408051610160810182528b1515815260006020820181815233938301939093526001600160a01b038c811660608401528516608083015260a0820188905260c0820187905260e08201899052600380546101008085019190915261012084018c90526101408401869052600680546001810182559352835160099093027ff652222313e28459528d920b65115c16c04f3efc82aaedc97be59f3f377c0d3f01805460ff198116941515948517825595519495909493859361ffff1990921661ff00199091161791908490811115612f9a57612f9a6134ad565b02179055506040820151815462010000600160b01b031916620100006001600160a01b039283160217825560608301516001830180546001600160a01b0319908116928416929092179055608084015160028401805490921690831617905560a0830151600383015560c0830151600483015560e083015160058301556101008301516006830155610120830151600783015561014090920151600890910155819088908b167f91623fbd639d8d503fe2e77aab334b032313685f1b28c84d838c4b647b1f5d9d33604080516001600160a01b039092168252602082018c90520160405180910390a491505061308f60018055565b979650505050505050565b600260015414156130ed5760405162461bcd60e51b815260206004820152601f60248201527f5265656e7472616e637947756172643a207265656e7472616e742063616c6c006044820152606401612d71565b6002600155565b6000816001600160a01b0384166370a08231336040516001600160e01b031960e084901b1681526001600160a01b03909116600482015260240160206040518083038186803b15801561314657600080fd5b505afa15801561315a573d6000803e3d6000fd5b505050506040513d601f19601f8201168201806040525081019061317e9190613780565b101561319d576040516312171d8360e31b815260040160405180910390fd5b816001600160a01b03841663dd62ed3e336040516001600160e01b031960e084901b1681526001600160a01b03909116600482015230602482015260440160206040518083038186803b1580156131f357600080fd5b505afa158015613207573d6000803e3d6000fd5b505050506040513d601f19601f8201168201806040525081019061322b9190613780565b101561324a576040516312171d8360e31b815260040160405180910390fd5b50600192915050565b6040516301ffc9a760e01b815263152a902d60e11b600482015260009081906001600160a01b038416906301ffc9a79060240160206040518083038186803b15801561329e57600080fd5b505afa1580156132b2573d6000803e3d6000fd5b505050506040513d601f19601f820116820180604052508101906132d6919061371b565b9392505050565b60608201516101208301516040516323b872dd60e01b81526000926001600160a01b0316916323b872dd916133199130918791906004016136f7565b600060405180830381600087803b15801561333357600080fd5b505af1158015613347573d6000803e3d6000fd5b50505050826101400151826001600160a01b031684606001516001600160a01b03167fae431d5cad5a89b9c071cf93ddf558ce818d4a6e760058ec64f77421ee66b65d86604001518761012001516040516133b79291906001600160a01b03929092168252602082015260400190565b60405180910390a450600192915050565b6000546001600160a01b031633146113ee5760405162461bcd60e51b815260206004820181905260248201527f4f776e61626c653a2063616c6c6572206973206e6f7420746865206f776e65726044820152606401612d71565b600080546001600160a01b038381166001600160a01b0319831681178455604051919092169283917f8be0079c531659141344cd1fd0a4f28419497f9722a3daafe3b4186f6b6457e09190a35050565b60006020828403121561348457600080fd5b5035919050565b6000806040838503121561349e57600080fd5b50508035926020909101359150565b634e487b7160e01b600052602160045260246000fd5b600481106134d3576134d36134ad565b9052565b602080825282518282018190526000919060409081850190868401855b8281101561359357815180511515855286810151613514888701826134c3565b50858101516001600160a01b03908116868801526060808301518216908701526080808301519091169086015260a0808201519086015260c0808201519086015260e0808201519086015261010080820151908601526101208082015190860152610140908101519085015261016090930192908501906001016134f4565b5091979650505050505050565b6001600160a01b0381168114612d8357600080fd5b6000602082840312156135c757600080fd5b81356132d6816135a0565b602080825282518282018190526000919060409081850190868401855b8281101561359357815180518552868101516001600160a01b03168786015285015160038110613621576136216134ad565b84860152606090930192908501906001016135ef565b8015158114612d8357600080fd5b600080600080600080600060e0888a03121561366057600080fd5b873561366b81613637565b9650602088013561367b816135a0565b9550604088013561368b816135a0565b969995985095966060810135965060808101359560a0820135955060c0909101359350915050565b634e487b7160e01b600052603260045260246000fd5b600080604083850312156136dc57600080fd5b82516136e7816135a0565b6020939093015192949293505050565b6001600160a01b039384168152919092166020820152604081019190915260600190565b60006020828403121561372d57600080fd5b81516132d681613637565b634e487b7160e01b600052601160045260246000fd5b60008282101561376057613760613738565b500390565b600060001982141561377957613779613738565b5060010190565b60006020828403121561379257600080fd5b505191905056fea164736f6c6343000809000a",
  "linkReferences": {},
  "deployedLinkReferences": {}
}