{
  "_format": "hh-sol-artifact-1",
  "contractName": "NFTAirdrop",
  "sourceName": "contracts/NFTAirdrop.sol",
  "abi": [
    {
      "inputs": [
        {
          "internalType": "string",
          "name": "_name",
          "type": "string"
        },
        {
          "internalType": "string",
          "name": "_symbol",
          "type": "string"
        },
        {
          "internalType": "string",
          "name": "_contractURI",
          "type": "string"
        }
      ],
      "stateMutability": "nonpayable",
      "type": "constructor"
    },
    {
      "inputs": [],
      "name": "AlreadyRevealed",
      "type": "error"
    },
    {
      "inputs": [],
      "name": "NotExistedToken",
      "type": "error"
    },
    {
      "anonymous": false,
      "inputs": [
        {
          "indexed": true,
          "internalType": "address",
          "name": "owner",
          "type": "address"
        },
        {
          "indexed": true,
          "internalType": "address",
          "name": "approved",
          "type": "address"
        },
        {
          "indexed": true,
          "internalType": "uint256",
          "name": "tokenId",
          "type": "uint256"
        }
      ],
      "name": "Approval",
      "type": "event"
    },
    {
      "anonymous": false,
      "inputs": [
        {
          "indexed": true,
          "internalType": "address",
          "name": "owner",
          "type": "address"
        },
        {
          "indexed": true,
          "internalType": "address",
          "name": "operator",
          "type": "address"
        },
        {
          "indexed": false,
          "internalType": "bool",
          "name": "approved",
          "type": "bool"
        }
      ],
      "name": "ApprovalForAll",
      "type": "event"
    },
    {
      "anonymous": false,
      "inputs": [
        {
          "indexed": false,
          "internalType": "uint256",
          "name": "_fromTokenId",
          "type": "uint256"
        },
        {
          "indexed": false,
          "internalType": "uint256",
          "name": "_toTokenId",
          "type": "uint256"
        }
      ],
      "name": "BatchMetadataUpdate",
      "type": "event"
    },
    {
      "anonymous": false,
      "inputs": [
        {
          "indexed": false,
          "internalType": "uint256",
          "name": "_tokenId",
          "type": "uint256"
        }
      ],
      "name": "MetadataUpdate",
      "type": "event"
    },
    {
      "anonymous": false,
      "inputs": [
        {
          "indexed": true,
          "internalType": "address",
          "name": "previousOwner",
          "type": "address"
        },
        {
          "indexed": true,
          "internalType": "address",
          "name": "newOwner",
          "type": "address"
        }
      ],
      "name": "OwnershipTransferred",
      "type": "event"
    },
    {
      "anonymous": false,
      "inputs": [
        {
          "indexed": true,
          "internalType": "address",
          "name": "from",
          "type": "address"
        },
        {
          "indexed": true,
          "internalType": "address",
          "name": "to",
          "type": "address"
        },
        {
          "indexed": true,
          "internalType": "uint256",
          "name": "tokenId",
          "type": "uint256"
        }
      ],
      "name": "Transfer",
      "type": "event"
    },
    {
      "inputs": [
        {
          "internalType": "address",
          "name": "",
          "type": "address"
        },
        {
          "internalType": "uint256",
          "name": "",
          "type": "uint256"
        }
      ],
      "name": "_owners_tokenIds",
      "outputs": [
        {
          "internalType": "uint256",
          "name": "",
          "type": "uint256"
        }
      ],
      "stateMutability": "view",
      "type": "function"
    },
    {
      "inputs": [
        {
          "internalType": "address",
          "name": "to",
          "type": "address"
        },
        {
          "internalType": "uint256",
          "name": "tokenId",
          "type": "uint256"
        }
      ],
      "name": "approve",
      "outputs": [],
      "stateMutability": "nonpayable",
      "type": "function"
    },
    {
      "inputs": [
        {
          "internalType": "address",
          "name": "owner",
          "type": "address"
        }
      ],
      "name": "balanceOf",
      "outputs": [
        {
          "internalType": "uint256",
          "name": "",
          "type": "uint256"
        }
      ],
      "stateMutability": "view",
      "type": "function"
    },
    {
      "inputs": [
        {
          "internalType": "uint256",
          "name": "_tokenId",
          "type": "uint256"
        }
      ],
      "name": "burn",
      "outputs": [
        {
          "internalType": "bool",
          "name": "",
          "type": "bool"
        }
      ],
      "stateMutability": "nonpayable",
      "type": "function"
    },
    {
      "inputs": [],
      "name": "contractURI",
      "outputs": [
        {
          "internalType": "string",
          "name": "",
          "type": "string"
        }
      ],
      "stateMutability": "view",
      "type": "function"
    },
    {
      "inputs": [
        {
          "internalType": "uint256",
          "name": "tokenId",
          "type": "uint256"
        }
      ],
      "name": "getApproved",
      "outputs": [
        {
          "internalType": "address",
          "name": "",
          "type": "address"
        }
      ],
      "stateMutability": "view",
      "type": "function"
    },
    {
      "inputs": [],
      "name": "getLastTokenId",
      "outputs": [
        {
          "internalType": "uint256",
          "name": "",
          "type": "uint256"
        }
      ],
      "stateMutability": "view",
      "type": "function"
    },
    {
      "inputs": [
        {
          "internalType": "address",
          "name": "_user",
          "type": "address"
        }
      ],
      "name": "getOwnerTokenIds",
      "outputs": [
        {
          "internalType": "uint256[]",
          "name": "",
          "type": "uint256[]"
        }
      ],
      "stateMutability": "view",
      "type": "function"
    },
    {
      "inputs": [
        {
          "internalType": "address",
          "name": "owner",
          "type": "address"
        },
        {
          "internalType": "address",
          "name": "operator",
          "type": "address"
        }
      ],
      "name": "isApprovedForAll",
      "outputs": [
        {
          "internalType": "bool",
          "name": "",
          "type": "bool"
        }
      ],
      "stateMutability": "view",
      "type": "function"
    },
    {
      "inputs": [
        {
          "internalType": "uint256",
          "name": "",
          "type": "uint256"
        }
      ],
      "name": "isUpdated",
      "outputs": [
        {
          "internalType": "bool",
          "name": "",
          "type": "bool"
        }
      ],
      "stateMutability": "view",
      "type": "function"
    },
    {
      "inputs": [
        {
          "internalType": "address",
          "name": "_creator",
          "type": "address"
        },
        {
          "internalType": "address",
          "name": "_user",
          "type": "address"
        },
        {
          "internalType": "string",
          "name": "tokenURI",
          "type": "string"
        },
        {
          "internalType": "uint256",
          "name": "_royalties",
          "type": "uint256"
        }
      ],
      "name": "mint",
      "outputs": [
        {
          "internalType": "uint256",
          "name": "",
          "type": "uint256"
        }
      ],
      "stateMutability": "nonpayable",
      "type": "function"
    },
    {
      "inputs": [],
      "name": "name",
      "outputs": [
        {
          "internalType": "string",
          "name": "",
          "type": "string"
        }
      ],
      "stateMutability": "view",
      "type": "function"
    },
    {
      "inputs": [],
      "name": "owner",
      "outputs": [
        {
          "internalType": "address",
          "name": "",
          "type": "address"
        }
      ],
      "stateMutability": "view",
      "type": "function"
    },
    {
      "inputs": [
        {
          "internalType": "uint256",
          "name": "tokenId",
          "type": "uint256"
        }
      ],
      "name": "ownerOf",
      "outputs": [
        {
          "internalType": "address",
          "name": "",
          "type": "address"
        }
      ],
      "stateMutability": "view",
      "type": "function"
    },
    {
      "inputs": [],
      "name": "renounceOwnership",
      "outputs": [],
      "stateMutability": "nonpayable",
      "type": "function"
    },
    {
      "inputs": [
        {
          "internalType": "uint256",
          "name": "_tokenId",
          "type": "uint256"
        },
        {
          "internalType": "uint256",
          "name": "_sellPrice",
          "type": "uint256"
        }
      ],
      "name": "royaltyInfo",
      "outputs": [
        {
          "internalType": "address",
          "name": "receiver",
          "type": "address"
        },
        {
          "internalType": "uint256",
          "name": "royaltyAmount",
          "type": "uint256"
        }
      ],
      "stateMutability": "view",
      "type": "function"
    },
    {
      "inputs": [
        {
          "internalType": "address",
          "name": "from",
          "type": "address"
        },
        {
          "internalType": "address",
          "name": "to",
          "type": "address"
        },
        {
          "internalType": "uint256",
          "name": "tokenId",
          "type": "uint256"
        }
      ],
      "name": "safeTransferFrom",
      "outputs": [],
      "stateMutability": "nonpayable",
      "type": "function"
    },
    {
      "inputs": [
        {
          "internalType": "address",
          "name": "from",
          "type": "address"
        },
        {
          "internalType": "address",
          "name": "to",
          "type": "address"
        },
        {
          "internalType": "uint256",
          "name": "tokenId",
          "type": "uint256"
        },
        {
          "internalType": "bytes",
          "name": "data",
          "type": "bytes"
        }
      ],
      "name": "safeTransferFrom",
      "outputs": [],
      "stateMutability": "nonpayable",
      "type": "function"
    },
    {
      "inputs": [
        {
          "internalType": "address",
          "name": "operator",
          "type": "address"
        },
        {
          "internalType": "bool",
          "name": "approved",
          "type": "bool"
        }
      ],
      "name": "setApprovalForAll",
      "outputs": [],
      "stateMutability": "nonpayable",
      "type": "function"
    },
    {
      "inputs": [
        {
          "internalType": "uint256",
          "name": "_tokenId",
          "type": "uint256"
        },
        {
          "internalType": "address payable",
          "name": "_royaltiesReceipientAddress",
          "type": "address"
        },
        {
          "internalType": "uint256",
          "name": "_percentageBasisPoints",
          "type": "uint256"
        }
      ],
      "name": "setRoyalties",
      "outputs": [],
      "stateMutability": "nonpayable",
      "type": "function"
    },
    {
      "inputs": [
        {
          "internalType": "bytes4",
          "name": "interfaceId",
          "type": "bytes4"
        }
      ],
      "name": "supportsInterface",
      "outputs": [
        {
          "internalType": "bool",
          "name": "",
          "type": "bool"
        }
      ],
      "stateMutability": "view",
      "type": "function"
    },
    {
      "inputs": [],
      "name": "symbol",
      "outputs": [
        {
          "internalType": "string",
          "name": "",
          "type": "string"
        }
      ],
      "stateMutability": "view",
      "type": "function"
    },
    {
      "inputs": [
        {
          "internalType": "uint256",
          "name": "tokenId",
          "type": "uint256"
        }
      ],
      "name": "tokenURI",
      "outputs": [
        {
          "internalType": "string",
          "name": "",
          "type": "string"
        }
      ],
      "stateMutability": "view",
      "type": "function"
    },
    {
      "inputs": [
        {
          "internalType": "address",
          "name": "from",
          "type": "address"
        },
        {
          "internalType": "address",
          "name": "to",
          "type": "address"
        },
        {
          "internalType": "uint256",
          "name": "tokenId",
          "type": "uint256"
        }
      ],
      "name": "transferFrom",
      "outputs": [],
      "stateMutability": "nonpayable",
      "type": "function"
    },
    {
      "inputs": [
        {
          "internalType": "address",
          "name": "newOwner",
          "type": "address"
        }
      ],
      "name": "transferOwnership",
      "outputs": [],
      "stateMutability": "nonpayable",
      "type": "function"
    },
    {
      "inputs": [
        {
          "internalType": "uint256",
          "name": "tokenId",
          "type": "uint256"
        },
        {
          "internalType": "string",
          "name": "_tokenURI",
          "type": "string"
        }
      ],
      "name": "updateTokenURI",
      "outputs": [],
      "stateMutability": "nonpayable",
      "type": "function"
    }
  ],
  "bytecode": "0x60806040523480156200001157600080fd5b506040516200218a3803806200218a833981016040819052620000349162000288565b8251839083906200004d90600090602085019062000115565b5080516200006390600190602084019062000115565b505050620000806200007a620000b660201b60201c565b620000ba565b80516200009590600a90602084019062000115565b50620000ad60086200010c60201b62000be91760201c565b50505062000356565b3390565b600780546001600160a01b038381166001600160a01b0319831681179093556040519116919082907f8be0079c531659141344cd1fd0a4f28419497f9722a3daafe3b4186f6b6457e090600090a35050565b80546001019055565b828054620001239062000319565b90600052602060002090601f01602090048101928262000147576000855562000192565b82601f106200016257805160ff191683800117855562000192565b8280016001018555821562000192579182015b828111156200019257825182559160200191906001019062000175565b50620001a0929150620001a4565b5090565b5b80821115620001a05760008155600101620001a5565b634e487b7160e01b600052604160045260246000fd5b600082601f830112620001e357600080fd5b81516001600160401b0380821115620002005762000200620001bb565b604051601f8301601f19908116603f011681019082821181831017156200022b576200022b620001bb565b816040528381526020925086838588010111156200024857600080fd5b600091505b838210156200026c57858201830151818301840152908201906200024d565b838211156200027e5760008385830101525b9695505050505050565b6000806000606084860312156200029e57600080fd5b83516001600160401b0380821115620002b657600080fd5b620002c487838801620001d1565b94506020860151915080821115620002db57600080fd5b620002e987838801620001d1565b935060408601519150808211156200030057600080fd5b506200030f86828701620001d1565b9150509250925092565b600181811c908216806200032e57607f821691505b602082108114156200035057634e487b7160e01b600052602260045260246000fd5b50919050565b611e2480620003666000396000f3fe608060405234801561001057600080fd5b506004361061018e5760003560e01c806383c4c00d116100de578063c87b56dd11610097578063e66b600011610071578063e66b600014610380578063e8a3d485146103a0578063e985e9c5146103a8578063f2fde38b146103e457600080fd5b8063c87b56dd14610337578063d39daf7e1461034a578063e2c7f3381461036d57600080fd5b806383c4c00d146102dd5780638da5cb5b146102e557806395d89b41146102f6578063a22cb465146102fe578063b88d4fde14610311578063c640da3e1461032457600080fd5b80632a55205a1161014b5780636352211e116101255780636352211e1461028e578063665310df146102a157806370a08231146102c2578063715018a6146102d557600080fd5b80632a55205a1461023657806342842e0e1461026857806342966c681461027b57600080fd5b806301ffc9a71461019357806306fdde03146101bb578063081812fc146101d0578063095ea7b3146101fb57806318e97fd11461021057806323b872dd14610223575b600080fd5b6101a66101a13660046117d1565b6103f7565b60405190151581526020015b60405180910390f35b6101c3610422565b6040516101b29190611846565b6101e36101de366004611859565b6104b4565b6040516001600160a01b0390911681526020016101b2565b61020e610209366004611887565b6104db565b005b61020e61021e36600461193f565b6105f6565b61020e61023136600461199a565b61068f565b6102496102443660046119db565b6106c0565b604080516001600160a01b0390931683526020830191909152016101b2565b61020e61027636600461199a565b610716565b6101a6610289366004611859565b610731565b6101e361029c366004611859565b61074c565b6102b46102af366004611887565b6107ac565b6040519081526020016101b2565b6102b46102d03660046119fd565b6107dd565b61020e610863565b6102b4610877565b6007546001600160a01b03166101e3565b6101c3610893565b61020e61030c366004611a1a565b6108a2565b61020e61031f366004611a58565b6108ad565b6102b4610332366004611ad8565b6108e5565b6101c3610345366004611859565b610994565b6101a6610358366004611859565b600c6020526000908152604090205460ff1681565b61020e61037b366004611b72565b610aa5565b61039361038e3660046119fd565b610af5565b6040516101b29190611b99565b6101c3610b61565b6101a66103b6366004611bdd565b6001600160a01b03918216600090815260056020908152604080832093909416825291909152205460ff1690565b61020e6103f23660046119fd565b610b70565b60006001600160e01b0319821663152a902d60e11b148061041c575061041c82610bf2565b92915050565b60606000805461043190611c0b565b80601f016020809104026020016040519081016040528092919081815260200182805461045d90611c0b565b80156104aa5780601f1061047f576101008083540402835291602001916104aa565b820191906000526020600020905b81548152906001019060200180831161048d57829003601f168201915b5050505050905090565b60006104bf82610c17565b506000908152600460205260409020546001600160a01b031690565b60006104e68261074c565b9050806001600160a01b0316836001600160a01b031614156105595760405162461bcd60e51b815260206004820152602160248201527f4552433732313a20617070726f76616c20746f2063757272656e74206f776e656044820152603960f91b60648201526084015b60405180910390fd5b336001600160a01b0382161480610575575061057581336103b6565b6105e75760405162461bcd60e51b815260206004820152603d60248201527f4552433732313a20617070726f76652063616c6c6572206973206e6f7420746f60448201527f6b656e206f776e6572206f7220617070726f76656420666f7220616c6c0000006064820152608401610550565b6105f18383610c76565b505050565b6105fe610ce4565b6000828152600260205260409020546001600160a01b03166106335760405163913024e360e01b815260040160405180910390fd5b6000828152600c602052604090205460ff161515600114156106685760405163a89ac15160e01b815260040160405180910390fd5b6000828152600c60205260409020805460ff1916600117905561068b8282610d3e565b5050565b6106993382610e10565b6106b55760405162461bcd60e51b815260040161055090611c46565b6105f1838383610e8e565b6000828152600960209081526040808320815180830190925280546001600160a01b03168252600101549181018290528291612710906107009086611ca9565b61070a9190611cc8565b90519590945092505050565b6105f1838383604051806020016040528060008152506108ad565b600061073b610ce4565b61074482610ff2565b506001919050565b6000818152600260205260408120546001600160a01b03168061041c5760405162461bcd60e51b8152602060048201526018602482015277115490cdcc8c4e881a5b9d985b1a59081d1bdad95b88125160421b6044820152606401610550565b600b60205281600052604060002081815481106107c857600080fd5b90600052602060002001600091509150505481565b60006001600160a01b0382166108475760405162461bcd60e51b815260206004820152602960248201527f4552433732313a2061646472657373207a65726f206973206e6f7420612076616044820152683634b21037bbb732b960b91b6064820152608401610550565b506001600160a01b031660009081526003602052604090205490565b61086b610ce4565b6108756000611032565b565b6000600161088460085490565b61088e9190611cea565b905090565b60606001805461043190611c0b565b61068b338383611084565b6108b73383610e10565b6108d35760405162461bcd60e51b815260040161055090611c46565b6108df84848484611153565b50505050565b60006108ef610ce4565b60006108fa60085490565b905061090a600880546001019055565b6109148682611186565b6109548186868080601f016020809104026020016040519081016040528093929190818152602001838380828437600092019190915250610d3e92505050565b6001600160a01b0386166000908152600b602090815260408220805460018101825590835291200181905561098a818885610aa5565b9695505050505050565b606061099f82610c17565b600082815260066020526040812080546109b890611c0b565b80601f01602080910402602001604051908101604052809291908181526020018280546109e490611c0b565b8015610a315780601f10610a0657610100808354040283529160200191610a31565b820191906000526020600020905b815481529060010190602001808311610a1457829003601f168201915b505050505090506000610a4f60408051602081019091526000815290565b9050805160001415610a62575092915050565b815115610a94578082604051602001610a7c929190611d01565b60405160208183030381529060405292505050919050565b610a9d84611311565b949350505050565b610aad610ce4565b6040805180820182526001600160a01b03938416815260208082019384526000958652600990529320925183546001600160a01b031916921691909117825551600190910155565b6001600160a01b0381166000908152600b6020908152604091829020805483518184028101840190945280845260609392830182828015610b5557602002820191906000526020600020905b815481526020019060010190808311610b41575b50505050509050919050565b6060600a805461043190611c0b565b610b78610ce4565b6001600160a01b038116610bdd5760405162461bcd60e51b815260206004820152602660248201527f4f776e61626c653a206e6577206f776e657220697320746865207a65726f206160448201526564647265737360d01b6064820152608401610550565b610be681611032565b50565b80546001019055565b60006001600160e01b03198216632483248360e11b148061041c575061041c82611385565b6000818152600260205260409020546001600160a01b0316610be65760405162461bcd60e51b8152602060048201526018602482015277115490cdcc8c4e881a5b9d985b1a59081d1bdad95b88125160421b6044820152606401610550565b600081815260046020526040902080546001600160a01b0319166001600160a01b0384169081179091558190610cab8261074c565b6001600160a01b03167f8c5be1e5ebec7d5bd14f71427d1e84f3dd0314c0f7b2291e5b200ac8c7c3b92560405160405180910390a45050565b6007546001600160a01b031633146108755760405162461bcd60e51b815260206004820181905260248201527f4f776e61626c653a2063616c6c6572206973206e6f7420746865206f776e65726044820152606401610550565b6000828152600260205260409020546001600160a01b0316610db95760405162461bcd60e51b815260206004820152602e60248201527f45524337323155524953746f726167653a2055524920736574206f66206e6f6e60448201526d32bc34b9ba32b73a103a37b5b2b760911b6064820152608401610550565b60008281526006602090815260409091208251610dd8928401906116ec565b506040518281527ff8e1a15aba9398e019f0b49df1a4fde98ee17ae345cb5f6b5e2c27f5033e8ce79060200160405180910390a15050565b600080610e1c8361074c565b9050806001600160a01b0316846001600160a01b03161480610e6357506001600160a01b0380821660009081526005602090815260408083209388168352929052205460ff165b80610a9d5750836001600160a01b0316610e7c846104b4565b6001600160a01b031614949350505050565b826001600160a01b0316610ea18261074c565b6001600160a01b031614610ec75760405162461bcd60e51b815260040161055090611d30565b6001600160a01b038216610f295760405162461bcd60e51b8152602060048201526024808201527f4552433732313a207472616e7366657220746f20746865207a65726f206164646044820152637265737360e01b6064820152608401610550565b826001600160a01b0316610f3c8261074c565b6001600160a01b031614610f625760405162461bcd60e51b815260040161055090611d30565b600081815260046020908152604080832080546001600160a01b03199081169091556001600160a01b0387811680865260038552838620805460001901905590871680865283862080546001019055868652600290945282852080549092168417909155905184937fddf252ad1be2c89b69c2b068fc378daa952ba7f163c4a11628f55a4df523b3ef91a4505050565b610ffb816113d5565b6000818152600660205260409020805461101490611c0b565b159050610be6576000818152600660205260408120610be691611770565b600780546001600160a01b038381166001600160a01b0319831681179093556040519116919082907f8be0079c531659141344cd1fd0a4f28419497f9722a3daafe3b4186f6b6457e090600090a35050565b816001600160a01b0316836001600160a01b031614156110e65760405162461bcd60e51b815260206004820152601960248201527f4552433732313a20617070726f766520746f2063616c6c6572000000000000006044820152606401610550565b6001600160a01b03838116600081815260056020908152604080832094871680845294825291829020805460ff191686151590811790915591519182527f17307eab39ab6107e8899845ad3d59bd9653f200f220920489ca2b5937696c31910160405180910390a3505050565b61115e848484610e8e565b61116a8484848461146a565b6108df5760405162461bcd60e51b815260040161055090611d75565b6001600160a01b0382166111dc5760405162461bcd60e51b815260206004820181905260248201527f4552433732313a206d696e7420746f20746865207a65726f20616464726573736044820152606401610550565b6000818152600260205260409020546001600160a01b0316156112415760405162461bcd60e51b815260206004820152601c60248201527f4552433732313a20746f6b656e20616c7265616479206d696e746564000000006044820152606401610550565b6000818152600260205260409020546001600160a01b0316156112a65760405162461bcd60e51b815260206004820152601c60248201527f4552433732313a20746f6b656e20616c7265616479206d696e746564000000006044820152606401610550565b6001600160a01b038216600081815260036020908152604080832080546001019055848352600290915280822080546001600160a01b0319168417905551839291907fddf252ad1be2c89b69c2b068fc378daa952ba7f163c4a11628f55a4df523b3ef908290a45050565b606061131c82610c17565b600061133360408051602081019091526000815290565b90506000815111611353576040518060200160405280600081525061137e565b8061135d84611577565b60405160200161136e929190611d01565b6040516020818303038152906040525b9392505050565b60006001600160e01b031982166380ac58cd60e01b14806113b657506001600160e01b03198216635b5e139f60e01b145b8061041c57506301ffc9a760e01b6001600160e01b031983161461041c565b60006113e08261074c565b90506113eb8261074c565b600083815260046020908152604080832080546001600160a01b03199081169091556001600160a01b0385168085526003845282852080546000190190558785526002909352818420805490911690555192935084927fddf252ad1be2c89b69c2b068fc378daa952ba7f163c4a11628f55a4df523b3ef908390a45050565b60006001600160a01b0384163b1561156c57604051630a85bd0160e11b81526001600160a01b0385169063150b7a02906114ae903390899088908890600401611dc7565b602060405180830381600087803b1580156114c857600080fd5b505af19250505080156114f8575060408051601f3d908101601f191682019092526114f591810190611dfa565b60015b611552573d808015611526576040519150601f19603f3d011682016040523d82523d6000602084013e61152b565b606091505b50805161154a5760405162461bcd60e51b815260040161055090611d75565b805181602001fd5b6001600160e01b031916630a85bd0160e11b149050610a9d565b506001949350505050565b6060600061158483611614565b600101905060008167ffffffffffffffff8111156115a4576115a46118b3565b6040519080825280601f01601f1916602001820160405280156115ce576020820181803683370190505b5090508181016020015b600019016f181899199a1a9b1b9c1cb0b131b232b360811b600a86061a8153600a85049450846116075761160c565b6115d8565b509392505050565b60008072184f03e93ff9f4daa797ed6e38ed64bf6a1f0160401b83106116535772184f03e93ff9f4daa797ed6e38ed64bf6a1f0160401b830492506040015b6d04ee2d6d415b85acef8100000000831061167f576d04ee2d6d415b85acef8100000000830492506020015b662386f26fc10000831061169d57662386f26fc10000830492506010015b6305f5e10083106116b5576305f5e100830492506008015b61271083106116c957612710830492506004015b606483106116db576064830492506002015b600a831061041c5760010192915050565b8280546116f890611c0b565b90600052602060002090601f01602090048101928261171a5760008555611760565b82601f1061173357805160ff1916838001178555611760565b82800160010185558215611760579182015b82811115611760578251825591602001919060010190611745565b5061176c9291506117a6565b5090565b50805461177c90611c0b565b6000825580601f1061178c575050565b601f016020900490600052602060002090810190610be691905b5b8082111561176c57600081556001016117a7565b6001600160e01b031981168114610be657600080fd5b6000602082840312156117e357600080fd5b813561137e816117bb565b60005b838110156118095781810151838201526020016117f1565b838111156108df5750506000910152565b600081518084526118328160208601602086016117ee565b601f01601f19169290920160200192915050565b60208152600061137e602083018461181a565b60006020828403121561186b57600080fd5b5035919050565b6001600160a01b0381168114610be657600080fd5b6000806040838503121561189a57600080fd5b82356118a581611872565b946020939093013593505050565b634e487b7160e01b600052604160045260246000fd5b600067ffffffffffffffff808411156118e4576118e46118b3565b604051601f8501601f19908116603f0116810190828211818310171561190c5761190c6118b3565b8160405280935085815286868601111561192557600080fd5b858560208301376000602087830101525050509392505050565b6000806040838503121561195257600080fd5b82359150602083013567ffffffffffffffff81111561197057600080fd5b8301601f8101851361198157600080fd5b611990858235602084016118c9565b9150509250929050565b6000806000606084860312156119af57600080fd5b83356119ba81611872565b925060208401356119ca81611872565b929592945050506040919091013590565b600080604083850312156119ee57600080fd5b50508035926020909101359150565b600060208284031215611a0f57600080fd5b813561137e81611872565b60008060408385031215611a2d57600080fd5b8235611a3881611872565b915060208301358015158114611a4d57600080fd5b809150509250929050565b60008060008060808587031215611a6e57600080fd5b8435611a7981611872565b93506020850135611a8981611872565b925060408501359150606085013567ffffffffffffffff811115611aac57600080fd5b8501601f81018713611abd57600080fd5b611acc878235602084016118c9565b91505092959194509250565b600080600080600060808688031215611af057600080fd5b8535611afb81611872565b94506020860135611b0b81611872565b9350604086013567ffffffffffffffff80821115611b2857600080fd5b818801915088601f830112611b3c57600080fd5b813581811115611b4b57600080fd5b896020828501011115611b5d57600080fd5b96999598505060200195606001359392505050565b600080600060608486031215611b8757600080fd5b8335925060208401356119ca81611872565b6020808252825182820181905260009190848201906040850190845b81811015611bd157835183529284019291840191600101611bb5565b50909695505050505050565b60008060408385031215611bf057600080fd5b8235611bfb81611872565b91506020830135611a4d81611872565b600181811c90821680611c1f57607f821691505b60208210811415611c4057634e487b7160e01b600052602260045260246000fd5b50919050565b6020808252602d908201527f4552433732313a2063616c6c6572206973206e6f7420746f6b656e206f776e6560408201526c1c881bdc88185c1c1c9bdd9959609a1b606082015260800190565b634e487b7160e01b600052601160045260246000fd5b6000816000190483118215151615611cc357611cc3611c93565b500290565b600082611ce557634e487b7160e01b600052601260045260246000fd5b500490565b600082821015611cfc57611cfc611c93565b500390565b60008351611d138184602088016117ee565b835190830190611d278183602088016117ee565b01949350505050565b60208082526025908201527f4552433732313a207472616e736665722066726f6d20696e636f72726563742060408201526437bbb732b960d91b606082015260800190565b60208082526032908201527f4552433732313a207472616e7366657220746f206e6f6e20455243373231526560408201527131b2b4bb32b91034b6b83632b6b2b73a32b960711b606082015260800190565b6001600160a01b038581168252841660208201526040810183905260806060820181905260009061098a9083018461181a565b600060208284031215611e0c57600080fd5b815161137e816117bb56fea164736f6c6343000809000a",
  "linkReferences": {},
  "deployedLinkReferences": {}
}