{
  "_format": "hh-sol-artifact-1",
  "contractName": "TicketQueue",
  "sourceName": "contracts/TicketQueue.sol",
  "abi": [
    {
      "inputs": [],
      "stateMutability": "nonpayable",
      "type": "constructor"
    },
    {
      "inputs": [],
      "name": "Address0",
      "type": "error"
    },
    {
      "inputs": [],
      "name": "AddressNotFound",
      "type": "error"
    },
    {
      "inputs": [],
      "name": "AlreadyParticipated",
      "type": "error"
    },
    {
      "inputs": [],
      "name": "AlreadyUpdated",
      "type": "error"
    },
    {
      "inputs": [],
      "name": "IDNotExist",
      "type": "error"
    },
    {
      "inputs": [],
      "name": "Inactive",
      "type": "error"
    },
    {
      "inputs": [],
      "name": "ItsAirdropEvent",
      "type": "error"
    },
    {
      "inputs": [],
      "name": "LowAllowance",
      "type": "error"
    },
    {
      "inputs": [],
      "name": "MDataNotEqualWData",
      "type": "error"
    },
    {
      "inputs": [],
      "name": "NativeToken",
      "type": "error"
    },
    {
      "inputs": [],
      "name": "NoParticipants",
      "type": "error"
    },
    {
      "inputs": [],
      "name": "NotAnnounced",
      "type": "error"
    },
    {
      "inputs": [],
      "name": "NotApproved",
      "type": "error"
    },
    {
      "inputs": [],
      "name": "NotCorrect",
      "type": "error"
    },
    {
      "inputs": [],
      "name": "NotEndedYet",
      "type": "error"
    },
    {
      "inputs": [],
      "name": "NotEnoughBalance",
      "type": "error"
    },
    {
      "inputs": [],
      "name": "NotInList",
      "type": "error"
    },
    {
      "inputs": [],
      "name": "NotNativeToken",
      "type": "error"
    },
    {
      "inputs": [],
      "name": "Processing",
      "type": "error"
    },
    {
      "inputs": [],
      "name": "TransferFailed",
      "type": "error"
    },
    {
      "inputs": [],
      "name": "ValueLessThanFee",
      "type": "error"
    },
    {
      "inputs": [],
      "name": "YouAreWinner",
      "type": "error"
    },
    {
      "anonymous": false,
      "inputs": [
        {
          "indexed": true,
          "internalType": "address",
          "name": "collection",
          "type": "address"
        },
        {
          "indexed": true,
          "internalType": "address",
          "name": "user",
          "type": "address"
        },
        {
          "indexed": true,
          "internalType": "uint256",
          "name": "queueID",
          "type": "uint256"
        }
      ],
      "name": "AirdropEvent",
      "type": "event"
    },
    {
      "anonymous": false,
      "inputs": [
        {
          "indexed": true,
          "internalType": "address",
          "name": "collection",
          "type": "address"
        },
        {
          "indexed": true,
          "internalType": "uint256",
          "name": "queueID",
          "type": "uint256"
        },
        {
          "indexed": true,
          "internalType": "uint256",
          "name": "newWindow",
          "type": "uint256"
        }
      ],
      "name": "MintingExtended",
      "type": "event"
    },
    {
      "anonymous": false,
      "inputs": [
        {
          "indexed": true,
          "internalType": "address",
          "name": "collection",
          "type": "address"
        },
        {
          "indexed": false,
          "internalType": "string",
          "name": "name",
          "type": "string"
        }
      ],
      "name": "NewCollection",
      "type": "event"
    },
    {
      "anonymous": false,
      "inputs": [
        {
          "indexed": true,
          "internalType": "address",
          "name": "previousOwner",
          "type": "address"
        },
        {
          "indexed": true,
          "internalType": "address",
          "name": "newOwner",
          "type": "address"
        }
      ],
      "name": "OwnershipTransferred",
      "type": "event"
    },
    {
      "anonymous": false,
      "inputs": [
        {
          "indexed": true,
          "internalType": "address",
          "name": "collection",
          "type": "address"
        },
        {
          "indexed": true,
          "internalType": "address",
          "name": "canceledAddress",
          "type": "address"
        },
        {
          "indexed": true,
          "internalType": "uint256",
          "name": "queueID",
          "type": "uint256"
        }
      ],
      "name": "ParticipationCanceled",
      "type": "event"
    },
    {
      "anonymous": false,
      "inputs": [
        {
          "indexed": true,
          "internalType": "address",
          "name": "user",
          "type": "address"
        },
        {
          "indexed": true,
          "internalType": "address",
          "name": "collection",
          "type": "address"
        },
        {
          "indexed": true,
          "internalType": "uint256",
          "name": "queueID",
          "type": "uint256"
        }
      ],
      "name": "ParticipationNotif",
      "type": "event"
    },
    {
      "anonymous": false,
      "inputs": [
        {
          "indexed": true,
          "internalType": "uint256",
          "name": "queueID",
          "type": "uint256"
        },
        {
          "indexed": true,
          "internalType": "address",
          "name": "collection",
          "type": "address"
        }
      ],
      "name": "QueueCreated",
      "type": "event"
    },
    {
      "anonymous": false,
      "inputs": [
        {
          "indexed": true,
          "internalType": "address",
          "name": "collection",
          "type": "address"
        },
        {
          "indexed": true,
          "internalType": "uint256",
          "name": "queueID",
          "type": "uint256"
        }
      ],
      "name": "WinnerUpdated",
      "type": "event"
    },
    {
      "inputs": [
        {
          "internalType": "uint256",
          "name": "",
          "type": "uint256"
        }
      ],
      "name": "Collections",
      "outputs": [
        {
          "internalType": "address",
          "name": "",
          "type": "address"
        }
      ],
      "stateMutability": "view",
      "type": "function"
    },
    {
      "inputs": [
        {
          "internalType": "uint256",
          "name": "",
          "type": "uint256"
        },
        {
          "internalType": "uint256",
          "name": "",
          "type": "uint256"
        }
      ],
      "name": "Metadata",
      "outputs": [
        {
          "internalType": "string",
          "name": "",
          "type": "string"
        }
      ],
      "stateMutability": "view",
      "type": "function"
    },
    {
      "inputs": [
        {
          "internalType": "uint256",
          "name": "",
          "type": "uint256"
        },
        {
          "internalType": "uint256",
          "name": "",
          "type": "uint256"
        }
      ],
      "name": "Participants",
      "outputs": [
        {
          "internalType": "address",
          "name": "",
          "type": "address"
        }
      ],
      "stateMutability": "view",
      "type": "function"
    },
    {
      "inputs": [
        {
          "internalType": "uint256",
          "name": "",
          "type": "uint256"
        },
        {
          "internalType": "uint256",
          "name": "",
          "type": "uint256"
        }
      ],
      "name": "Winners",
      "outputs": [
        {
          "internalType": "address",
          "name": "",
          "type": "address"
        }
      ],
      "stateMutability": "view",
      "type": "function"
    },
    {
      "inputs": [
        {
          "internalType": "uint256",
          "name": "",
          "type": "uint256"
        }
      ],
      "name": "allEvents",
      "outputs": [
        {
          "internalType": "bool",
          "name": "airdrop",
          "type": "bool"
        },
        {
          "internalType": "address",
          "name": "token",
          "type": "address"
        },
        {
          "internalType": "address",
          "name": "collection",
          "type": "address"
        },
        {
          "internalType": "uint256",
          "name": "startDate",
          "type": "uint256"
        },
        {
          "internalType": "uint256",
          "name": "endDate",
          "type": "uint256"
        },
        {
          "internalType": "uint256",
          "name": "fee",
          "type": "uint256"
        },
        {
          "internalType": "uint256",
          "name": "mintingWindow",
          "type": "uint256"
        },
        {
          "internalType": "uint256",
          "name": "allowedWithdraw",
          "type": "uint256"
        },
        {
          "internalType": "uint256",
          "name": "royalties",
          "type": "uint256"
        },
        {
          "internalType": "uint256",
          "name": "qID",
          "type": "uint256"
        }
      ],
      "stateMutability": "view",
      "type": "function"
    },
    {
      "inputs": [],
      "name": "approved",
      "outputs": [
        {
          "internalType": "address",
          "name": "",
          "type": "address"
        }
      ],
      "stateMutability": "view",
      "type": "function"
    },
    {
      "inputs": [
        {
          "internalType": "uint256",
          "name": "_queueId",
          "type": "uint256"
        }
      ],
      "name": "cancelParticipation",
      "outputs": [],
      "stateMutability": "nonpayable",
      "type": "function"
    },
    {
      "inputs": [
        {
          "internalType": "string",
          "name": "_name",
          "type": "string"
        },
        {
          "internalType": "string",
          "name": "_symbol",
          "type": "string"
        },
        {
          "internalType": "string",
          "name": "_metadata",
          "type": "string"
        }
      ],
      "name": "createCollection",
      "outputs": [],
      "stateMutability": "nonpayable",
      "type": "function"
    },
    {
      "inputs": [
        {
          "internalType": "bool",
          "name": "_airdrop",
          "type": "bool"
        },
        {
          "internalType": "address",
          "name": "_collection",
          "type": "address"
        },
        {
          "internalType": "address",
          "name": "_token",
          "type": "address"
        },
        {
          "internalType": "uint256",
          "name": "_startDate",
          "type": "uint256"
        },
        {
          "internalType": "uint256",
          "name": "_endDate",
          "type": "uint256"
        },
        {
          "internalType": "uint256",
          "name": "_fee",
          "type": "uint256"
        },
        {
          "internalType": "uint256",
          "name": "_royalties",
          "type": "uint256"
        }
      ],
      "name": "createQueue",
      "outputs": [],
      "stateMutability": "nonpayable",
      "type": "function"
    },
    {
      "inputs": [
        {
          "internalType": "uint256",
          "name": "_queueId",
          "type": "uint256"
        }
      ],
      "name": "enterQueueERC20",
      "outputs": [],
      "stateMutability": "nonpayable",
      "type": "function"
    },
    {
      "inputs": [
        {
          "internalType": "uint256",
          "name": "_queueId",
          "type": "uint256"
        }
      ],
      "name": "enterQueueNative",
      "outputs": [],
      "stateMutability": "payable",
      "type": "function"
    },
    {
      "inputs": [],
      "name": "getAllEvents",
      "outputs": [
        {
          "components": [
            {
              "internalType": "bool",
              "name": "airdrop",
              "type": "bool"
            },
            {
              "internalType": "address",
              "name": "token",
              "type": "address"
            },
            {
              "internalType": "address",
              "name": "collection",
              "type": "address"
            },
            {
              "internalType": "uint256",
              "name": "startDate",
              "type": "uint256"
            },
            {
              "internalType": "uint256",
              "name": "endDate",
              "type": "uint256"
            },
            {
              "internalType": "uint256",
              "name": "fee",
              "type": "uint256"
            },
            {
              "internalType": "uint256",
              "name": "mintingWindow",
              "type": "uint256"
            },
            {
              "internalType": "uint256",
              "name": "allowedWithdraw",
              "type": "uint256"
            },
            {
              "internalType": "uint256",
              "name": "royalties",
              "type": "uint256"
            },
            {
              "internalType": "uint256",
              "name": "qID",
              "type": "uint256"
            }
          ],
          "internalType": "struct TicketQueue.Queue[]",
          "name": "",
          "type": "tuple[]"
        }
      ],
      "stateMutability": "view",
      "type": "function"
    },
    {
      "inputs": [
        {
          "internalType": "uint256",
          "name": "_queueId",
          "type": "uint256"
        }
      ],
      "name": "getMetadata",
      "outputs": [
        {
          "internalType": "string[]",
          "name": "",
          "type": "string[]"
        }
      ],
      "stateMutability": "view",
      "type": "function"
    },
    {
      "inputs": [
        {
          "internalType": "uint256",
          "name": "_queueId",
          "type": "uint256"
        }
      ],
      "name": "getParticipants",
      "outputs": [
        {
          "internalType": "address[]",
          "name": "",
          "type": "address[]"
        }
      ],
      "stateMutability": "view",
      "type": "function"
    },
    {
      "inputs": [
        {
          "internalType": "uint256",
          "name": "_queueId",
          "type": "uint256"
        }
      ],
      "name": "getWinners",
      "outputs": [
        {
          "internalType": "address[]",
          "name": "",
          "type": "address[]"
        }
      ],
      "stateMutability": "view",
      "type": "function"
    },
    {
      "inputs": [],
      "name": "owner",
      "outputs": [
        {
          "internalType": "address",
          "name": "",
          "type": "address"
        }
      ],
      "stateMutability": "view",
      "type": "function"
    },
    {
      "inputs": [],
      "name": "renounceOwnership",
      "outputs": [],
      "stateMutability": "nonpayable",
      "type": "function"
    },
    {
      "inputs": [
        {
          "internalType": "address",
          "name": "newOwner",
          "type": "address"
        }
      ],
      "name": "transferOwnership",
      "outputs": [],
      "stateMutability": "nonpayable",
      "type": "function"
    },
    {
      "inputs": [
        {
          "internalType": "address",
          "name": "_relayer",
          "type": "address"
        }
      ],
      "name": "updateApprovedAddress",
      "outputs": [],
      "stateMutability": "nonpayable",
      "type": "function"
    },
    {
      "inputs": [
        {
          "internalType": "uint256",
          "name": "_queueId",
          "type": "uint256"
        },
        {
          "internalType": "address[]",
          "name": "_winners",
          "type": "address[]"
        },
        {
          "internalType": "string[]",
          "name": "_metadata",
          "type": "string[]"
        }
      ],
      "name": "updateWinners",
      "outputs": [],
      "stateMutability": "nonpayable",
      "type": "function"
    },
    {
      "inputs": [
        {
          "internalType": "uint256",
          "name": "_queueId",
          "type": "uint256"
        }
      ],
      "name": "winnerMinting",
      "outputs": [],
      "stateMutability": "nonpayable",
      "type": "function"
    },
    {
      "inputs": [
        {
          "internalType": "uint256",
          "name": "_queueId",
          "type": "uint256"
        }
      ],
      "name": "withdraw",
      "outputs": [],
      "stateMutability": "nonpayable",
      "type": "function"
    }
  ],
  "bytecode": "0x608060405234801561001057600080fd5b5061001a33610023565b60018055610073565b600080546001600160a01b038381166001600160a01b0319831681178455604051919092169283917f8be0079c531659141344cd1fd0a4f28419497f9722a3daafe3b4186f6b6457e09190a35050565b61537e80620000836000396000f3fe6080604052600436106200014f5760003560e01c8063b19c050d11620000b9578063ece86c211162000078578063ece86c21146200042e578063f2fde38b1462000453578063f51ffa721462000478578063f76c5b4714620004ac578063fa6eba3514620004d1578063fee246ce14620004f657600080fd5b8063b19c050d1462000373578063bbf89a951462000398578063c1e3bd3e14620003bd578063c27a500d14620003e2578063d7057b17146200040957600080fd5b8063715018a61162000112578063715018a6146200029157806375c73ae914620002a95780638da5cb5b14620002ce5780639781960914620002ee578063a113459b1462000328578063a574cea4146200033f57600080fd5b806319d40b0814620001545780632e1a7d4d14620001935780633bec5cff14620001ba5780635b69e8fb14620002385780636b1426a4146200025d575b600080fd5b3480156200016157600080fd5b5060085462000176906001600160a01b031681565b6040516001600160a01b0390911681526020015b60405180910390f35b348015620001a057600080fd5b50620001b8620001b236600462002948565b6200051b565b005b348015620001c757600080fd5b50620001df620001d936600462002948565b620005da565b604080519a15158b526001600160a01b03998a1660208c015297909816968901969096526060880194909452608087019290925260a086015260c085015260e0840152610100830152610120820152610140016200018a565b3480156200024557600080fd5b50620001b8620002573660046200297f565b6200064f565b3480156200026a57600080fd5b50620002826200027c36600462002948565b62000688565b6040516200018a9190620029a4565b3480156200029e57600080fd5b50620001b8620006f6565b348015620002b657600080fd5b50620001b8620002c836600462002948565b6200070e565b348015620002db57600080fd5b506000546001600160a01b031662000176565b348015620002fb57600080fd5b50620001766200030d36600462002948565b6006602052600090815260409020546001600160a01b031681565b620001b86200033936600462002948565b62000c17565b3480156200034c57600080fd5b50620003646200035e36600462002948565b62000fb4565b6040516200018a919062002a43565b3480156200038057600080fd5b50620001b86200039236600462002948565b620010aa565b348015620003a557600080fd5b50620001b8620003b736600462002948565b620014fa565b348015620003ca57600080fd5b5062000282620003dc36600462002948565b62001923565b348015620003ef57600080fd5b50620003fa6200198f565b6040516200018a919062002aa9565b3480156200041657600080fd5b50620001b86200042836600462002b6b565b62001a64565b3480156200043b57600080fd5b50620001b86200044d36600462002c28565b62001d9b565b3480156200046057600080fd5b50620001b8620004723660046200297f565b62001e7f565b3480156200048557600080fd5b506200049d6200049736600462002ccc565b62001eff565b6040516200018a919062002cef565b348015620004b957600080fd5b50620001b8620004cb36600462002e6e565b62001fc1565b348015620004de57600080fd5b5062000176620004f036600462002ccc565b6200250e565b3480156200050357600080fd5b50620001766200051536600462002ccc565b62002547565b6000546001600160a01b031633148015906200054b57506008546001600160a01b0316336001600160a01b031614155b156200056a5760405163c19f17a960e01b815260040160405180910390fd5b6000546001600160a01b03166001600160a01b03166108fc6007838154811062000598576200059862002f47565b9060005260206000209060090201600601549081150290604051600060405180830381858888f19350505050158015620005d6573d6000803e3d6000fd5b5050565b60078181548110620005eb57600080fd5b600091825260209091206009909102018054600182015460028301546003840154600485015460058601546006870154600788015460089098015460ff881699506101009097046001600160a01b039081169896169694959394929391929091908a565b6200065962002564565b62000663620025c0565b600880546001600160a01b0319166001600160a01b0383161790556001805550565b50565b600081815260036020908152604091829020805483518184028101840190945280845260609392830182828015620006ea57602002820191906000526020600020905b81546001600160a01b03168152600190910190602001808311620006cb575b50505050509050919050565b62000700620025c0565b6200070c60006200261c565b565b6200071862002564565b3362000737576040516359c662df60e11b815260040160405180910390fd5b60075481106200075a57604051635a56c09160e01b815260040160405180910390fd5b60006007828154811062000772576200077262002f47565b600091825260209182902060408051610140810182526009909302909101805460ff8116151584526001600160a01b036101009182900481169585019590955260018201549094169183019190915260028101546060830181905260038201546080840152600482015460a0840152600582015460c0840152600682015460e08401526007820154938301939093526008015461012082015291504210806200083c57508060800151421180156200083c5750608081015162000839906201518062002f73565b42105b156200085b57604051632e8acb0d60e01b815260040160405180910390fd5b600082815260036020526040902054156200094e57600082815260036020908152604080832080548251818502810185019093528083529192909190830182828015620008d257602002820191906000526020600020905b81546001600160a01b03168152600190910190602001808311620008b3575b5050505050905060005b81518110156200094b57336001600160a01b031682828151811062000905576200090562002f47565b60200260200101516001600160a01b031614156200093657604051633646d7b760e01b815260040160405180910390fd5b80620009428162002f8e565b915050620008dc565b50505b600082815260046020908152604080832080548251818502810185019093528083529192909190830182828015620009b057602002820191906000526020600020905b81546001600160a01b0316815260019091019060200180831162000991575b505050505090506000805b825181101562000bea57828181518110620009da57620009da62002f47565b60200260200101516001600160a01b0316620009f33390565b6001600160a01b0316141562000bd557600085815260046020526040902080548290811062000a265762000a2662002f47565b60009182526020918290200180546001600160a01b0319169055840151600192506001600160a01b031662000b105760a084015160405160009133918381818185875af1925050503d806000811462000a9c576040519150601f19603f3d011682016040523d82523d6000602084013e62000aa1565b606091505b505090508062000ac4576040516312171d8360e31b815260040160405180910390fd5b85336001600160a01b031686604001516001600160a01b03167fe45267ab85dfa1be285b442bf64d1083b8ff3033582c0771f4a5c62157916dd560405160405180910390a45062000bea565b600084602001516001600160a01b031663a9059cbb62000b2d3390565b60a08801516040516001600160e01b031960e085901b1681526001600160a01b0390921660048301526024820152604401602060405180830381600087803b15801562000b7957600080fd5b505af115801562000b8e573d6000803e3d6000fd5b505050506040513d601f19601f8201168201806040525081019062000bb4919062002fac565b90508062000ac4576040516312171d8360e31b815260040160405180910390fd5b8062000be18162002f8e565b915050620009bb565b508062000c0a57604051636054b46960e01b815260040160405180910390fd5b5050506200068560018055565b62000c2162002564565b6007548190811062000c4657604051635a56c09160e01b815260040160405180910390fd5b60008181526004602090815260408083208054825181850281018501909352808352919290919083018282801562000ca857602002820191906000526020600020905b81546001600160a01b0316815260019091019060200180831162000c89575b5050505050905060006007838154811062000cc75762000cc762002f47565b6000918252602080832060408051610140810182526009909402909101805460ff8116151585526001600160a01b03610100918290048116948601949094526001820154909316918401919091526002810154606084015260038101546080840152600481015460a0840152600581015460c0840152600681015460e08401526007810154918301919091526008015461012082015291505b825181101562000dcf57336001600160a01b031683828151811062000d895762000d8962002f47565b60200260200101516001600160a01b0316141562000dba576040516322ce1a0760e01b815260040160405180910390fd5b8062000dc68162002f8e565b91505062000d60565b50428160600151118062000de65750428160800151105b1562000e0557604051632e8acb0d60e01b815260040160405180910390fd5b60006007858154811062000e1d5762000e1d62002f47565b6000918252602080832060408051610140810182526009909402909101805460ff8116151585526001600160a01b03610100918290048116948601949094526001820154909316918401919091526002810154606084015260038101546080840152600481015460a0840152600581015460c0840152600681015460e084015260078101549183019190915260080154610120820152915062000ebd3390565b6001600160a01b0316141562000ee6576040516359c662df60e11b815260040160405180910390fd5b60208101516001600160a01b03161562000f135760405163be5abbed60e01b815260040160405180910390fd5b348160a00151111562000f395760405163015ca75d60e71b815260040160405180910390fd5b6000858152600460209081526040808320805460018101825590845291832090910180546001600160a01b0319163390811790915583820151915188936001600160a01b0393909316927fdda23cf4e5f49cf09e853d1d7eba4c2ca1b873c9c49d051d923f35715d8dfad391a4505050506200068560018055565b606060056000838152602001908152602001600020805480602002602001604051908101604052809291908181526020016000905b828210156200109f5783829060005260206000200180546200100b9062002fcc565b80601f0160208091040260200160405190810160405280929190818152602001828054620010399062002fcc565b80156200108a5780601f106200105e576101008083540402835291602001916200108a565b820191906000526020600020905b8154815290600101906020018083116200106c57829003601f168201915b50505050508152602001906001019062000fe9565b505050509050919050565b620010b462002564565b60075481908110620010d957604051635a56c09160e01b815260040160405180910390fd5b6000818152600460209081526040808320805482518185028101850190935280835291929091908301828280156200113b57602002820191906000526020600020905b81546001600160a01b031681526001909101906020018083116200111c575b505050505090506000600783815481106200115a576200115a62002f47565b6000918252602080832060408051610140810182526009909402909101805460ff8116151585526001600160a01b03610100918290048116948601949094526001820154909316918401919091526002810154606084015260038101546080840152600481015460a0840152600581015460c0840152600681015460e08401526007810154918301919091526008015461012082015291505b82518110156200126257336001600160a01b03168382815181106200121c576200121c62002f47565b60200260200101516001600160a01b031614156200124d576040516322ce1a0760e01b815260040160405180910390fd5b80620012598162002f8e565b915050620011f3565b504281606001511180620012795750428160800151105b156200129857604051632e8acb0d60e01b815260040160405180910390fd5b600060078581548110620012b057620012b062002f47565b6000918252602080832060408051610140810182526009909402909101805460ff8116151585526001600160a01b03610100918290048116948601949094526001820154909316918401919091526002810154606084015260038101546080840152600481015460a0840152600581015460c0840152600681015460e0840152600781015491830191909152600801546101208201529150620013503390565b6001600160a01b0316141562001379576040516359c662df60e11b815260040160405180910390fd5b60208101516001600160a01b0316620013a55760405163a73681ab60e01b815260040160405180910390fd5b602081015160a0820151620013bc9082906200266c565b5060006001600160a01b0382166323b872dd3360a08601516040516001600160e01b031960e085901b1681526001600160a01b0390921660048301523060248301526044820152606401602060405180830381600087803b1580156200142157600080fd5b505af115801562001436573d6000803e3d6000fd5b505050506040513d601f19601f820116820180604052508101906200145c919062002fac565b9050806200147d576040516312171d8360e31b815260040160405180910390fd5b6000878152600460209081526040808320805460018101825590845291832090910180546001600160a01b031916339081179091558582015191518a936001600160a01b0393909316927fdda23cf4e5f49cf09e853d1d7eba4c2ca1b873c9c49d051d923f35715d8dfad391a45050505050506200068560018055565b6200150462002564565b3362001523576040516359c662df60e11b815260040160405180910390fd5b60075481106200154657604051635a56c09160e01b815260040160405180910390fd5b6000600782815481106200155e576200155e62002f47565b600091825260209182902060408051610140810182526009909302909101805460ff811615158085526001600160a01b0361010092839004811696860196909652600180840154909616938501939093526002820154606085015260038201546080850152600482015460a0850152600582015460c0850152600682015460e08501526007820154908401526008015461012083015290925014156200161757604051637bbae2d960e01b815260040160405180910390fd5b428160800151620151806200162d919062002f73565b11156200164d57604051631d772e4360e01b815260040160405180910390fd5b600082815260036020908152604080832080548251818502810185019093528083529192909190830182828015620016af57602002820191906000526020600020905b81546001600160a01b0316815260019091019060200180831162001690575b50505050509050805160001415620016da5760405163dfb6909360e01b815260040160405180910390fd5b6000805b82518110156200190357336001600160a01b031683828151811062001707576200170762002f47565b60200260200101516001600160a01b03161415620018ee57604080850151600087815260036020529190912080548390811062001748576200174862002f47565b6000918252602080832090910180546001600160a01b0319169055878252600590526040902080548390811062001783576200178362002f47565b9060005260206000200160006200179b9190620027d4565b806001600160a01b031663c640da3e620017bd6000546001600160a01b031690565b3360008a8152600560205260409020805487908110620017e157620017e162002f47565b906000526020600020018961010001516040518563ffffffff1660e01b815260040162001812949392919062003009565b602060405180830381600087803b1580156200182d57600080fd5b505af115801562001842573d6000803e3d6000fd5b505050506040513d601f19601f82011682018060405250810190620018689190620030de565b508460a001516007878154811062001884576200188462002f47565b90600052602060002090600902016006016000828254620018a6919062002f73565b9091555050604051869033906001600160a01b038416907f3f3e0cb0c8889648d91931efa9d3f6d0d04adfb07c856e6c4e09334339befe9190600090a4600192505062001903565b80620018fa8162002f8e565b915050620016de565b508062000c0a5760405163c748627360e01b815260040160405180910390fd5b600081815260046020908152604091829020805483518184028101840190945280845260609392830182828015620006ea576020028201919060005260206000209081546001600160a01b03168152600190910190602001808311620006cb5750505050509050919050565b60606007805480602002602001604051908101604052809291908181526020016000905b8282101562001a5b576000848152602090819020604080516101408101825260098602909201805460ff8116151584526001600160a01b0361010091829004811685870152600180840154909116938501939093526002820154606085015260038201546080850152600482015460a0850152600582015460c0850152600682015460e0850152600782015490840152600801546101208301529083529092019101620019b3565b50505050905090565b62001a6e62002564565b6000546001600160a01b0316331480159062001a9e57506008546001600160a01b0316336001600160a01b031614155b1562001abd5760405163c19f17a960e01b815260040160405180910390fd5b60006040518061014001604052808915158152602001876001600160a01b03168152602001886001600160a01b03168152602001868152602001858152602001848152602001600081526020016000815260200183815260200162001b2160025490565b9052905062001b34600280546001019055565b6007805460018082018355600092835283517fa66cc928b5edb82af9bd49922954155ab7b0942694bea4ce44661d9a8736c6886009909302928301805460208701516001600160a81b0319909116921515610100600160a81b031916929092176101006001600160a01b0393841681029190911790915560408601517fa66cc928b5edb82af9bd49922954155ab7b0942694bea4ce44661d9a8736c689850180546001600160a01b031916919093161790915560608501517fa66cc928b5edb82af9bd49922954155ab7b0942694bea4ce44661d9a8736c68a84015560808501517fa66cc928b5edb82af9bd49922954155ab7b0942694bea4ce44661d9a8736c68b84015560a08501517fa66cc928b5edb82af9bd49922954155ab7b0942694bea4ce44661d9a8736c68c84015560c08501517fa66cc928b5edb82af9bd49922954155ab7b0942694bea4ce44661d9a8736c68d84015560e08501517fa66cc928b5edb82af9bd49922954155ab7b0942694bea4ce44661d9a8736c68e8401558401517fa66cc928b5edb82af9bd49922954155ab7b0942694bea4ce44661d9a8736c68f8301556101208401517fa66cc928b5edb82af9bd49922954155ab7b0942694bea4ce44661d9a8736c690909201919091556002548992600692909162001d1f9190620030f8565b8152602081019190915260400160002080546001600160a01b0319166001600160a01b039283161790556007549088169062001d5e90600190620030f8565b6040517fbf8ea0f62a7a7e3cfb0da5fdae5b0d3c26024905fe90a046bf4d94450bc0d32090600090a35062001d9260018055565b50505050505050565b6000546001600160a01b0316331480159062001dcb57506008546001600160a01b0316336001600160a01b031614155b1562001dea5760405163c19f17a960e01b815260040160405180910390fd5b600086868686868660405162001e009062002813565b62001e11969594939291906200313b565b604051809103906000f08015801562001e2e573d6000803e3d6000fd5b509050806001600160a01b03167f2210e28a81d454065cdd9896372a54d913fba8393c0de8523929c1c2746fec06888860405162001e6e9291906200318a565b60405180910390a250505050505050565b62001e89620025c0565b6001600160a01b03811662001ef45760405162461bcd60e51b815260206004820152602660248201527f4f776e61626c653a206e6577206f776e657220697320746865207a65726f206160448201526564647265737360d01b60648201526084015b60405180910390fd5b62000685816200261c565b6005602052816000526040600020818154811062001f1c57600080fd5b9060005260206000200160009150915050805462001f3a9062002fcc565b80601f016020809104026020016040519081016040528092919081815260200182805462001f689062002fcc565b801562001fb95780601f1062001f8d5761010080835404028352916020019162001fb9565b820191906000526020600020905b81548152906001019060200180831162001f9b57829003601f168201915b505050505081565b6000546001600160a01b0316331480159062001ff157506008546001600160a01b0316336001600160a01b031614155b15620020105760405163c19f17a960e01b815260040160405180910390fd5b6200201a62002564565b60006007848154811062002032576200203262002f47565b6000918252602080832060408051610140810182526009909402909101805460ff8116151585526001600160a01b036101009182900481168686015260018301541685840152600282015460608601526003808301546080870152600483015460a0870152600583015460c0870152600683015460e08701526007830154918601919091526008909101546101208501528885529091529091205490915015620020ef5760405163729efe8560e11b815260040160405180910390fd5b4281608001511115620021155760405163ebe6707360e01b815260040160405180910390fd5b8251825114620021385760405163016ba64d60e11b815260040160405180910390fd5b6000848152600460209081526040808320805482518185028101850190935280835291929091908301828280156200219a57602002820191906000526020600020905b81546001600160a01b031681526001909101906020018083116200217b575b50505050509050805160001415620021c5576040516308b6a47360e41b815260040160405180910390fd5b604082015160005b82518110156200244c5760005b86518110156200243657868181518110620021f957620021f962002f47565b60200260200101516001600160a01b03168483815181106200221f576200221f62002f47565b60200260200101516001600160a01b031614156200242157600088815260036020526040902087518890839081106200225c576200225c62002f47565b60209081029190910181015182546001810184556000938452919092200180546001600160a01b0319166001600160a01b039092169190911790558451156200241b57826001600160a01b031663c640da3e620022c16000546001600160a01b031690565b898481518110620022d657620022d662002f47565b6020026020010151898581518110620022f357620022f362002f47565b60200260200101518961010001516040518563ffffffff1660e01b8152600401620023229493929190620031a8565b602060405180830381600087803b1580156200233d57600080fd5b505af115801562002352573d6000803e3d6000fd5b505050506040513d601f19601f82011682018060405250810190620023789190620030de565b508460a001516007898154811062002394576200239462002f47565b90600052602060002090600902016006016000828254620023b6919062002f73565b9250508190555087878281518110620023d357620023d362002f47565b60200260200101516001600160a01b0316846001600160a01b03167f3f3e0cb0c8889648d91931efa9d3f6d0d04adfb07c856e6c4e09334339befe9160405160405180910390a45b62002436565b806200242d8162002f8e565b915050620021da565b5080620024438162002f8e565b915050620021cd565b506000868152600360205260409020541580620024785750845160008781526003602052604090205414155b1562002497576040516370bf538960e11b815260040160405180910390fd5b8251620024c15760008681526005602090815260409091208551620024bf9287019062002821565b505b8583604001516001600160a01b03167f55010ad183b1b26cb3968cf34e4328cc8901727f5cbdc872ae8536aaa8f44e7c60405160405180910390a35050506200250960018055565b505050565b600460205281600052604060002081815481106200252b57600080fd5b6000918252602090912001546001600160a01b03169150829050565b600360205281600052604060002081815481106200252b57600080fd5b60026001541415620025b95760405162461bcd60e51b815260206004820152601f60248201527f5265656e7472616e637947756172643a207265656e7472616e742063616c6c00604482015260640162001eeb565b6002600155565b6000546001600160a01b031633146200070c5760405162461bcd60e51b815260206004820181905260248201527f4f776e61626c653a2063616c6c6572206973206e6f7420746865206f776e6572604482015260640162001eeb565b600080546001600160a01b038381166001600160a01b0319831681178455604051919092169283917f8be0079c531659141344cd1fd0a4f28419497f9722a3daafe3b4186f6b6457e09190a35050565b6000816001600160a01b0384166370a08231336040516001600160e01b031960e084901b1681526001600160a01b03909116600482015260240160206040518083038186803b158015620026bf57600080fd5b505afa158015620026d4573d6000803e3d6000fd5b505050506040513d601f19601f82011682018060405250810190620026fa9190620030de565b10156200271a5760405163569d45cf60e11b815260040160405180910390fd5b816001600160a01b03841663dd62ed3e336040516001600160e01b031960e084901b1681526001600160a01b03909116600482015230602482015260440160206040518083038186803b1580156200277157600080fd5b505afa15801562002786573d6000803e3d6000fd5b505050506040513d601f19601f82011682018060405250810190620027ac9190620030de565b10620027cb576040516310bad14760e01b815260040160405180910390fd5b50600192915050565b508054620027e29062002fcc565b6000825580601f10620027f3575050565b601f01602090049060005260206000209081019062000685919062002885565b61218a80620031e883390190565b82805482825590600052602060002090810192821562002873579160200282015b82811115620028735782518051620028629184916020909101906200289c565b509160200191906001019062002842565b506200288192915062002927565b5090565b5b8082111562002881576000815560010162002886565b828054620028aa9062002fcc565b90600052602060002090601f016020900481019282620028ce576000855562002919565b82601f10620028e957805160ff191683800117855562002919565b8280016001018555821562002919579182015b8281111562002919578251825591602001919060010190620028fc565b506200288192915062002885565b80821115620028815760006200293e8282620027d4565b5060010162002927565b6000602082840312156200295b57600080fd5b5035919050565b80356001600160a01b03811681146200297a57600080fd5b919050565b6000602082840312156200299257600080fd5b6200299d8262002962565b9392505050565b6020808252825182820181905260009190848201906040850190845b81811015620029e75783516001600160a01b031683529284019291840191600101620029c0565b50909695505050505050565b6000815180845260005b8181101562002a1b57602081850181015186830182015201620029fd565b8181111562002a2e576000602083870101525b50601f01601f19169290920160200192915050565b6000602080830181845280855180835260408601915060408160051b870101925083870160005b8281101562002a9c57603f1988860301845262002a89858351620029f3565b9450928501929085019060010162002a6a565b5092979650505050505050565b602080825282518282018190526000919060409081850190868401855b8281101562002b4f578151805115158552868101516001600160a01b0390811688870152868201511686860152606080820151908601526080808201519086015260a0808201519086015260c0808201519086015260e0808201519086015261010080820151908601526101209081015190850152610140909301929085019060010162002ac6565b5091979650505050505050565b80151581146200068557600080fd5b600080600080600080600060e0888a03121562002b8757600080fd5b873562002b948162002b5c565b965062002ba46020890162002962565b955062002bb46040890162002962565b969995985095966060810135965060808101359560a0820135955060c0909101359350915050565b60008083601f84011262002bef57600080fd5b50813567ffffffffffffffff81111562002c0857600080fd5b60208301915083602082850101111562002c2157600080fd5b9250929050565b6000806000806000806060878903121562002c4257600080fd5b863567ffffffffffffffff8082111562002c5b57600080fd5b62002c698a838b0162002bdc565b9098509650602089013591508082111562002c8357600080fd5b62002c918a838b0162002bdc565b9096509450604089013591508082111562002cab57600080fd5b5062002cba89828a0162002bdc565b979a9699509497509295939492505050565b6000806040838503121562002ce057600080fd5b50508035926020909101359150565b6020815260006200299d6020830184620029f3565b634e487b7160e01b600052604160045260246000fd5b604051601f8201601f1916810167ffffffffffffffff8111828210171562002d465762002d4662002d04565b604052919050565b600067ffffffffffffffff82111562002d6b5762002d6b62002d04565b5060051b60200190565b6000601f838184011262002d8857600080fd5b8235602062002da162002d9b8362002d4e565b62002d1a565b82815260059290921b8501810191818101908784111562002dc157600080fd5b8287015b8481101562002e6257803567ffffffffffffffff8082111562002de85760008081fd5b818a0191508a603f83011262002dfe5760008081fd5b8582013560408282111562002e175762002e1762002d04565b62002e2a828b01601f1916890162002d1a565b92508183528c8183860101111562002e425760008081fd5b818185018985013750600090820187015284525091830191830162002dc5565b50979650505050505050565b60008060006060848603121562002e8457600080fd5b8335925060208085013567ffffffffffffffff8082111562002ea557600080fd5b818701915087601f83011262002eba57600080fd5b813562002ecb62002d9b8262002d4e565b81815260059190911b8301840190848101908a83111562002eeb57600080fd5b938501935b8285101562002f145762002f048562002962565b8252938501939085019062002ef0565b96505050604087013592508083111562002f2d57600080fd5b505062002f3d8682870162002d75565b9150509250925092565b634e487b7160e01b600052603260045260246000fd5b634e487b7160e01b600052601160045260246000fd5b6000821982111562002f895762002f8962002f5d565b500190565b600060001982141562002fa55762002fa562002f5d565b5060010190565b60006020828403121562002fbf57600080fd5b81516200299d8162002b5c565b600181811c9082168062002fe157607f821691505b602082108114156200300357634e487b7160e01b600052602260045260246000fd5b50919050565b6001600160a01b03858116825284166020808301919091526080604083015283546000918291600181811c90828116806200304557607f831692505b8483108114156200306457634e487b7160e01b86526022600452602486fd5b6080880183905260a088018180156200308657600181146200309857620030c5565b60ff19861682528682019750620030c5565b60008c81526020902060005b86811015620030bf57815484820152908501908801620030a4565b83019850505b5050505050606094909401949094529695505050505050565b600060208284031215620030f157600080fd5b5051919050565b6000828210156200310d576200310d62002f5d565b500390565b81835281816020850137506000828201602090810191909152601f909101601f19169091010190565b6060815260006200315160608301888a62003112565b82810360208401526200316681878962003112565b905082810360408401526200317d81858762003112565b9998505050505050505050565b602081526000620031a060208301848662003112565b949350505050565b6001600160a01b03858116825284166020820152608060408201819052600090620031d690830185620029f3565b90508260608301529594505050505056fe60806040523480156200001157600080fd5b506040516200218a3803806200218a833981016040819052620000349162000288565b8251839083906200004d90600090602085019062000115565b5080516200006390600190602084019062000115565b505050620000806200007a620000b660201b60201c565b620000ba565b80516200009590600a90602084019062000115565b50620000ad60086200010c60201b62000be91760201c565b50505062000356565b3390565b600780546001600160a01b038381166001600160a01b0319831681179093556040519116919082907f8be0079c531659141344cd1fd0a4f28419497f9722a3daafe3b4186f6b6457e090600090a35050565b80546001019055565b828054620001239062000319565b90600052602060002090601f01602090048101928262000147576000855562000192565b82601f106200016257805160ff191683800117855562000192565b8280016001018555821562000192579182015b828111156200019257825182559160200191906001019062000175565b50620001a0929150620001a4565b5090565b5b80821115620001a05760008155600101620001a5565b634e487b7160e01b600052604160045260246000fd5b600082601f830112620001e357600080fd5b81516001600160401b0380821115620002005762000200620001bb565b604051601f8301601f19908116603f011681019082821181831017156200022b576200022b620001bb565b816040528381526020925086838588010111156200024857600080fd5b600091505b838210156200026c57858201830151818301840152908201906200024d565b838211156200027e5760008385830101525b9695505050505050565b6000806000606084860312156200029e57600080fd5b83516001600160401b0380821115620002b657600080fd5b620002c487838801620001d1565b94506020860151915080821115620002db57600080fd5b620002e987838801620001d1565b935060408601519150808211156200030057600080fd5b506200030f86828701620001d1565b9150509250925092565b600181811c908216806200032e57607f821691505b602082108114156200035057634e487b7160e01b600052602260045260246000fd5b50919050565b611e2480620003666000396000f3fe608060405234801561001057600080fd5b506004361061018e5760003560e01c806383c4c00d116100de578063c87b56dd11610097578063e66b600011610071578063e66b600014610380578063e8a3d485146103a0578063e985e9c5146103a8578063f2fde38b146103e457600080fd5b8063c87b56dd14610337578063d39daf7e1461034a578063e2c7f3381461036d57600080fd5b806383c4c00d146102dd5780638da5cb5b146102e557806395d89b41146102f6578063a22cb465146102fe578063b88d4fde14610311578063c640da3e1461032457600080fd5b80632a55205a1161014b5780636352211e116101255780636352211e1461028e578063665310df146102a157806370a08231146102c2578063715018a6146102d557600080fd5b80632a55205a1461023657806342842e0e1461026857806342966c681461027b57600080fd5b806301ffc9a71461019357806306fdde03146101bb578063081812fc146101d0578063095ea7b3146101fb57806318e97fd11461021057806323b872dd14610223575b600080fd5b6101a66101a13660046117d1565b6103f7565b60405190151581526020015b60405180910390f35b6101c3610422565b6040516101b29190611846565b6101e36101de366004611859565b6104b4565b6040516001600160a01b0390911681526020016101b2565b61020e610209366004611887565b6104db565b005b61020e61021e36600461193f565b6105f6565b61020e61023136600461199a565b61068f565b6102496102443660046119db565b6106c0565b604080516001600160a01b0390931683526020830191909152016101b2565b61020e61027636600461199a565b610716565b6101a6610289366004611859565b610731565b6101e361029c366004611859565b61074c565b6102b46102af366004611887565b6107ac565b6040519081526020016101b2565b6102b46102d03660046119fd565b6107dd565b61020e610863565b6102b4610877565b6007546001600160a01b03166101e3565b6101c3610893565b61020e61030c366004611a1a565b6108a2565b61020e61031f366004611a58565b6108ad565b6102b4610332366004611ad8565b6108e5565b6101c3610345366004611859565b610994565b6101a6610358366004611859565b600c6020526000908152604090205460ff1681565b61020e61037b366004611b72565b610aa5565b61039361038e3660046119fd565b610af5565b6040516101b29190611b99565b6101c3610b61565b6101a66103b6366004611bdd565b6001600160a01b03918216600090815260056020908152604080832093909416825291909152205460ff1690565b61020e6103f23660046119fd565b610b70565b60006001600160e01b0319821663152a902d60e11b148061041c575061041c82610bf2565b92915050565b60606000805461043190611c0b565b80601f016020809104026020016040519081016040528092919081815260200182805461045d90611c0b565b80156104aa5780601f1061047f576101008083540402835291602001916104aa565b820191906000526020600020905b81548152906001019060200180831161048d57829003601f168201915b5050505050905090565b60006104bf82610c17565b506000908152600460205260409020546001600160a01b031690565b60006104e68261074c565b9050806001600160a01b0316836001600160a01b031614156105595760405162461bcd60e51b815260206004820152602160248201527f4552433732313a20617070726f76616c20746f2063757272656e74206f776e656044820152603960f91b60648201526084015b60405180910390fd5b336001600160a01b0382161480610575575061057581336103b6565b6105e75760405162461bcd60e51b815260206004820152603d60248201527f4552433732313a20617070726f76652063616c6c6572206973206e6f7420746f60448201527f6b656e206f776e6572206f7220617070726f76656420666f7220616c6c0000006064820152608401610550565b6105f18383610c76565b505050565b6105fe610ce4565b6000828152600260205260409020546001600160a01b03166106335760405163913024e360e01b815260040160405180910390fd5b6000828152600c602052604090205460ff161515600114156106685760405163a89ac15160e01b815260040160405180910390fd5b6000828152600c60205260409020805460ff1916600117905561068b8282610d3e565b5050565b6106993382610e10565b6106b55760405162461bcd60e51b815260040161055090611c46565b6105f1838383610e8e565b6000828152600960209081526040808320815180830190925280546001600160a01b03168252600101549181018290528291612710906107009086611ca9565b61070a9190611cc8565b90519590945092505050565b6105f1838383604051806020016040528060008152506108ad565b600061073b610ce4565b61074482610ff2565b506001919050565b6000818152600260205260408120546001600160a01b03168061041c5760405162461bcd60e51b8152602060048201526018602482015277115490cdcc8c4e881a5b9d985b1a59081d1bdad95b88125160421b6044820152606401610550565b600b60205281600052604060002081815481106107c857600080fd5b90600052602060002001600091509150505481565b60006001600160a01b0382166108475760405162461bcd60e51b815260206004820152602960248201527f4552433732313a2061646472657373207a65726f206973206e6f7420612076616044820152683634b21037bbb732b960b91b6064820152608401610550565b506001600160a01b031660009081526003602052604090205490565b61086b610ce4565b6108756000611032565b565b6000600161088460085490565b61088e9190611cea565b905090565b60606001805461043190611c0b565b61068b338383611084565b6108b73383610e10565b6108d35760405162461bcd60e51b815260040161055090611c46565b6108df84848484611153565b50505050565b60006108ef610ce4565b60006108fa60085490565b905061090a600880546001019055565b6109148682611186565b6109548186868080601f016020809104026020016040519081016040528093929190818152602001838380828437600092019190915250610d3e92505050565b6001600160a01b0386166000908152600b602090815260408220805460018101825590835291200181905561098a818885610aa5565b9695505050505050565b606061099f82610c17565b600082815260066020526040812080546109b890611c0b565b80601f01602080910402602001604051908101604052809291908181526020018280546109e490611c0b565b8015610a315780601f10610a0657610100808354040283529160200191610a31565b820191906000526020600020905b815481529060010190602001808311610a1457829003601f168201915b505050505090506000610a4f60408051602081019091526000815290565b9050805160001415610a62575092915050565b815115610a94578082604051602001610a7c929190611d01565b60405160208183030381529060405292505050919050565b610a9d84611311565b949350505050565b610aad610ce4565b6040805180820182526001600160a01b03938416815260208082019384526000958652600990529320925183546001600160a01b031916921691909117825551600190910155565b6001600160a01b0381166000908152600b6020908152604091829020805483518184028101840190945280845260609392830182828015610b5557602002820191906000526020600020905b815481526020019060010190808311610b41575b50505050509050919050565b6060600a805461043190611c0b565b610b78610ce4565b6001600160a01b038116610bdd5760405162461bcd60e51b815260206004820152602660248201527f4f776e61626c653a206e6577206f776e657220697320746865207a65726f206160448201526564647265737360d01b6064820152608401610550565b610be681611032565b50565b80546001019055565b60006001600160e01b03198216632483248360e11b148061041c575061041c82611385565b6000818152600260205260409020546001600160a01b0316610be65760405162461bcd60e51b8152602060048201526018602482015277115490cdcc8c4e881a5b9d985b1a59081d1bdad95b88125160421b6044820152606401610550565b600081815260046020526040902080546001600160a01b0319166001600160a01b0384169081179091558190610cab8261074c565b6001600160a01b03167f8c5be1e5ebec7d5bd14f71427d1e84f3dd0314c0f7b2291e5b200ac8c7c3b92560405160405180910390a45050565b6007546001600160a01b031633146108755760405162461bcd60e51b815260206004820181905260248201527f4f776e61626c653a2063616c6c6572206973206e6f7420746865206f776e65726044820152606401610550565b6000828152600260205260409020546001600160a01b0316610db95760405162461bcd60e51b815260206004820152602e60248201527f45524337323155524953746f726167653a2055524920736574206f66206e6f6e60448201526d32bc34b9ba32b73a103a37b5b2b760911b6064820152608401610550565b60008281526006602090815260409091208251610dd8928401906116ec565b506040518281527ff8e1a15aba9398e019f0b49df1a4fde98ee17ae345cb5f6b5e2c27f5033e8ce79060200160405180910390a15050565b600080610e1c8361074c565b9050806001600160a01b0316846001600160a01b03161480610e6357506001600160a01b0380821660009081526005602090815260408083209388168352929052205460ff165b80610a9d5750836001600160a01b0316610e7c846104b4565b6001600160a01b031614949350505050565b826001600160a01b0316610ea18261074c565b6001600160a01b031614610ec75760405162461bcd60e51b815260040161055090611d30565b6001600160a01b038216610f295760405162461bcd60e51b8152602060048201526024808201527f4552433732313a207472616e7366657220746f20746865207a65726f206164646044820152637265737360e01b6064820152608401610550565b826001600160a01b0316610f3c8261074c565b6001600160a01b031614610f625760405162461bcd60e51b815260040161055090611d30565b600081815260046020908152604080832080546001600160a01b03199081169091556001600160a01b0387811680865260038552838620805460001901905590871680865283862080546001019055868652600290945282852080549092168417909155905184937fddf252ad1be2c89b69c2b068fc378daa952ba7f163c4a11628f55a4df523b3ef91a4505050565b610ffb816113d5565b6000818152600660205260409020805461101490611c0b565b159050610be6576000818152600660205260408120610be691611770565b600780546001600160a01b038381166001600160a01b0319831681179093556040519116919082907f8be0079c531659141344cd1fd0a4f28419497f9722a3daafe3b4186f6b6457e090600090a35050565b816001600160a01b0316836001600160a01b031614156110e65760405162461bcd60e51b815260206004820152601960248201527f4552433732313a20617070726f766520746f2063616c6c6572000000000000006044820152606401610550565b6001600160a01b03838116600081815260056020908152604080832094871680845294825291829020805460ff191686151590811790915591519182527f17307eab39ab6107e8899845ad3d59bd9653f200f220920489ca2b5937696c31910160405180910390a3505050565b61115e848484610e8e565b61116a8484848461146a565b6108df5760405162461bcd60e51b815260040161055090611d75565b6001600160a01b0382166111dc5760405162461bcd60e51b815260206004820181905260248201527f4552433732313a206d696e7420746f20746865207a65726f20616464726573736044820152606401610550565b6000818152600260205260409020546001600160a01b0316156112415760405162461bcd60e51b815260206004820152601c60248201527f4552433732313a20746f6b656e20616c7265616479206d696e746564000000006044820152606401610550565b6000818152600260205260409020546001600160a01b0316156112a65760405162461bcd60e51b815260206004820152601c60248201527f4552433732313a20746f6b656e20616c7265616479206d696e746564000000006044820152606401610550565b6001600160a01b038216600081815260036020908152604080832080546001019055848352600290915280822080546001600160a01b0319168417905551839291907fddf252ad1be2c89b69c2b068fc378daa952ba7f163c4a11628f55a4df523b3ef908290a45050565b606061131c82610c17565b600061133360408051602081019091526000815290565b90506000815111611353576040518060200160405280600081525061137e565b8061135d84611577565b60405160200161136e929190611d01565b6040516020818303038152906040525b9392505050565b60006001600160e01b031982166380ac58cd60e01b14806113b657506001600160e01b03198216635b5e139f60e01b145b8061041c57506301ffc9a760e01b6001600160e01b031983161461041c565b60006113e08261074c565b90506113eb8261074c565b600083815260046020908152604080832080546001600160a01b03199081169091556001600160a01b0385168085526003845282852080546000190190558785526002909352818420805490911690555192935084927fddf252ad1be2c89b69c2b068fc378daa952ba7f163c4a11628f55a4df523b3ef908390a45050565b60006001600160a01b0384163b1561156c57604051630a85bd0160e11b81526001600160a01b0385169063150b7a02906114ae903390899088908890600401611dc7565b602060405180830381600087803b1580156114c857600080fd5b505af19250505080156114f8575060408051601f3d908101601f191682019092526114f591810190611dfa565b60015b611552573d808015611526576040519150601f19603f3d011682016040523d82523d6000602084013e61152b565b606091505b50805161154a5760405162461bcd60e51b815260040161055090611d75565b805181602001fd5b6001600160e01b031916630a85bd0160e11b149050610a9d565b506001949350505050565b6060600061158483611614565b600101905060008167ffffffffffffffff8111156115a4576115a46118b3565b6040519080825280601f01601f1916602001820160405280156115ce576020820181803683370190505b5090508181016020015b600019016f181899199a1a9b1b9c1cb0b131b232b360811b600a86061a8153600a85049450846116075761160c565b6115d8565b509392505050565b60008072184f03e93ff9f4daa797ed6e38ed64bf6a1f0160401b83106116535772184f03e93ff9f4daa797ed6e38ed64bf6a1f0160401b830492506040015b6d04ee2d6d415b85acef8100000000831061167f576d04ee2d6d415b85acef8100000000830492506020015b662386f26fc10000831061169d57662386f26fc10000830492506010015b6305f5e10083106116b5576305f5e100830492506008015b61271083106116c957612710830492506004015b606483106116db576064830492506002015b600a831061041c5760010192915050565b8280546116f890611c0b565b90600052602060002090601f01602090048101928261171a5760008555611760565b82601f1061173357805160ff1916838001178555611760565b82800160010185558215611760579182015b82811115611760578251825591602001919060010190611745565b5061176c9291506117a6565b5090565b50805461177c90611c0b565b6000825580601f1061178c575050565b601f016020900490600052602060002090810190610be691905b5b8082111561176c57600081556001016117a7565b6001600160e01b031981168114610be657600080fd5b6000602082840312156117e357600080fd5b813561137e816117bb565b60005b838110156118095781810151838201526020016117f1565b838111156108df5750506000910152565b600081518084526118328160208601602086016117ee565b601f01601f19169290920160200192915050565b60208152600061137e602083018461181a565b60006020828403121561186b57600080fd5b5035919050565b6001600160a01b0381168114610be657600080fd5b6000806040838503121561189a57600080fd5b82356118a581611872565b946020939093013593505050565b634e487b7160e01b600052604160045260246000fd5b600067ffffffffffffffff808411156118e4576118e46118b3565b604051601f8501601f19908116603f0116810190828211818310171561190c5761190c6118b3565b8160405280935085815286868601111561192557600080fd5b858560208301376000602087830101525050509392505050565b6000806040838503121561195257600080fd5b82359150602083013567ffffffffffffffff81111561197057600080fd5b8301601f8101851361198157600080fd5b611990858235602084016118c9565b9150509250929050565b6000806000606084860312156119af57600080fd5b83356119ba81611872565b925060208401356119ca81611872565b929592945050506040919091013590565b600080604083850312156119ee57600080fd5b50508035926020909101359150565b600060208284031215611a0f57600080fd5b813561137e81611872565b60008060408385031215611a2d57600080fd5b8235611a3881611872565b915060208301358015158114611a4d57600080fd5b809150509250929050565b60008060008060808587031215611a6e57600080fd5b8435611a7981611872565b93506020850135611a8981611872565b925060408501359150606085013567ffffffffffffffff811115611aac57600080fd5b8501601f81018713611abd57600080fd5b611acc878235602084016118c9565b91505092959194509250565b600080600080600060808688031215611af057600080fd5b8535611afb81611872565b94506020860135611b0b81611872565b9350604086013567ffffffffffffffff80821115611b2857600080fd5b818801915088601f830112611b3c57600080fd5b813581811115611b4b57600080fd5b896020828501011115611b5d57600080fd5b96999598505060200195606001359392505050565b600080600060608486031215611b8757600080fd5b8335925060208401356119ca81611872565b6020808252825182820181905260009190848201906040850190845b81811015611bd157835183529284019291840191600101611bb5565b50909695505050505050565b60008060408385031215611bf057600080fd5b8235611bfb81611872565b91506020830135611a4d81611872565b600181811c90821680611c1f57607f821691505b60208210811415611c4057634e487b7160e01b600052602260045260246000fd5b50919050565b6020808252602d908201527f4552433732313a2063616c6c6572206973206e6f7420746f6b656e206f776e6560408201526c1c881bdc88185c1c1c9bdd9959609a1b606082015260800190565b634e487b7160e01b600052601160045260246000fd5b6000816000190483118215151615611cc357611cc3611c93565b500290565b600082611ce557634e487b7160e01b600052601260045260246000fd5b500490565b600082821015611cfc57611cfc611c93565b500390565b60008351611d138184602088016117ee565b835190830190611d278183602088016117ee565b01949350505050565b60208082526025908201527f4552433732313a207472616e736665722066726f6d20696e636f72726563742060408201526437bbb732b960d91b606082015260800190565b60208082526032908201527f4552433732313a207472616e7366657220746f206e6f6e20455243373231526560408201527131b2b4bb32b91034b6b83632b6b2b73a32b960711b606082015260800190565b6001600160a01b038581168252841660208201526040810183905260806060820181905260009061098a9083018461181a565b600060208284031215611e0c57600080fd5b815161137e816117bb56fea164736f6c6343000809000aa164736f6c6343000809000a",
  "linkReferences": {},
  "deployedLinkReferences": {}
}